{
  "contractName": "NFT",
  "abi": [
    {
      "inputs": [
        {
          "internalType": "uint256",
          "name": "",
          "type": "uint256"
        }
      ],
      "name": "nft",
      "outputs": [
        {
          "internalType": "uint256",
          "name": "nft_id",
          "type": "uint256"
        },
        {
          "internalType": "string",
          "name": "name",
          "type": "string"
        },
        {
          "internalType": "string",
          "name": "picture",
          "type": "string"
        },
        {
          "internalType": "uint16",
          "name": "reward",
          "type": "uint16"
        },
        {
          "internalType": "string",
          "name": "type_nft",
          "type": "string"
        },
        {
          "internalType": "uint16",
          "name": "price",
          "type": "uint16"
        },
        {
          "internalType": "uint16",
          "name": "cost_wood",
          "type": "uint16"
        },
        {
          "internalType": "uint16",
          "name": "cost_fruit",
          "type": "uint16"
        },
        {
          "internalType": "uint16",
          "name": "energy_consumed",
          "type": "uint16"
        },
        {
          "internalType": "uint16",
          "name": "amount_food",
          "type": "uint16"
        },
        {
          "internalType": "address",
          "name": "seller",
          "type": "address"
        }
      ],
      "stateMutability": "view",
      "type": "function",
      "constant": true
    },
    {
      "inputs": [
        {
          "internalType": "address",
          "name": "",
          "type": "address"
        }
      ],
      "name": "ownerNFTCount",
      "outputs": [
        {
          "internalType": "uint256",
          "name": "",
          "type": "uint256"
        }
      ],
      "stateMutability": "view",
      "type": "function",
      "constant": true
    },
    {
      "inputs": [
        {
          "internalType": "uint256",
          "name": "",
          "type": "uint256"
        }
      ],
      "name": "ownerNft",
      "outputs": [
        {
          "internalType": "address",
          "name": "",
          "type": "address"
        }
      ],
      "stateMutability": "view",
      "type": "function",
      "constant": true
    },
    {
      "inputs": [
        {
          "internalType": "uint256",
          "name": "_nft_id",
          "type": "uint256"
        },
        {
          "internalType": "string",
          "name": "_name",
          "type": "string"
        },
        {
          "internalType": "string",
          "name": "_picture",
          "type": "string"
        },
        {
          "internalType": "uint16",
          "name": "_reward",
          "type": "uint16"
        },
        {
          "internalType": "string",
          "name": "_type_nft",
          "type": "string"
        },
        {
          "internalType": "uint16",
          "name": "_cost_wood",
          "type": "uint16"
        },
        {
          "internalType": "uint16",
          "name": "_cost_fruit",
          "type": "uint16"
        },
        {
          "internalType": "uint16",
          "name": "_energy_consumed",
          "type": "uint16"
        },
        {
          "internalType": "uint16",
          "name": "_amount_food",
          "type": "uint16"
        }
      ],
      "name": "_craftNFT",
      "outputs": [],
      "stateMutability": "nonpayable",
      "type": "function"
    },
    {
      "inputs": [
        {
          "internalType": "address",
          "name": "_owner",
          "type": "address"
        }
      ],
      "name": "getNFTByOwner",
      "outputs": [
        {
          "internalType": "uint256[]",
          "name": "",
          "type": "uint256[]"
        }
      ],
      "stateMutability": "view",
      "type": "function",
      "constant": true
    },
    {
      "inputs": [
        {
          "internalType": "uint256",
          "name": "_indexNFT",
          "type": "uint256"
        },
        {
          "internalType": "uint16",
          "name": "_price",
          "type": "uint16"
        }
      ],
      "name": "sellNFT",
      "outputs": [],
      "stateMutability": "nonpayable",
      "type": "function"
    },
    {
      "inputs": [
        {
          "internalType": "uint256",
          "name": "_indexNFT",
          "type": "uint256"
        },
        {
          "internalType": "uint16",
          "name": "_price",
          "type": "uint16"
        },
        {
          "internalType": "address",
          "name": "seller",
          "type": "address"
        }
      ],
      "name": "buyNFT",
      "outputs": [],
      "stateMutability": "payable",
      "type": "function",
      "payable": true
    },
    {
      "inputs": [
        {
          "internalType": "uint256",
          "name": "_indexNFT",
          "type": "uint256"
        }
      ],
      "name": "cancleNFT",
      "outputs": [],
      "stateMutability": "nonpayable",
      "type": "function"
    }
  ],
  "bytecode": "0x608060405234801561001057600080fd5b506118b0806100206000396000f3fe60806040526004361061007b5760003560e01c80639d0214cb1161004e5780639d0214cb1461012b578063cb0c14c414610172578063fb88df18146101af578063fda547ef146101ec5761007b565b8063048484491461008057806321381d371461009c578063349d595f146100d95780633ac94a5314610102575b600080fd5b61009a6004803603810190610095919061110c565b610215565b005b3480156100a857600080fd5b506100c360048036038101906100be919061115f565b610458565b6040516100d0919061119b565b60405180910390f35b3480156100e557600080fd5b5061010060048036038101906100fb919061115f565b61048b565b005b34801561010e57600080fd5b50610129600480360381019061012491906111b6565b610686565b005b34801561013757600080fd5b50610152600480360381019061014d919061115f565b610880565b6040516101699b9a999897969594939291906112ad565b60405180910390f35b34801561017e57600080fd5b506101996004803603810190610194919061136d565b610af6565b6040516101a69190611458565b60405180910390f35b3480156101bb57600080fd5b506101d660048036038101906101d1919061136d565b610c48565b6040516101e3919061147a565b60405180910390f35b3480156101f857600080fd5b50610213600480360381019061020e91906115ca565b610c60565b005b8073ffffffffffffffffffffffffffffffffffffffff166108fc349081150290604051600060405180830381858888f1935050505015801561025b573d6000803e3d6000fd5b50600060028481548110610272576102716116e8565b5b90600052602060002090600602019050828160050160006101000a81548161ffff021916908361ffff160217905550600081600501600a6101000a81548173ffffffffffffffffffffffffffffffffffffffff021916908373ffffffffffffffffffffffffffffffffffffffff16021790555060018060003073ffffffffffffffffffffffffffffffffffffffff1673ffffffffffffffffffffffffffffffffffffffff168152602001908152602001600020546103309190611746565b600160003073ffffffffffffffffffffffffffffffffffffffff1673ffffffffffffffffffffffffffffffffffffffff1681526020019081526020016000208190555060018060003373ffffffffffffffffffffffffffffffffffffffff1673ffffffffffffffffffffffffffffffffffffffff168152602001908152602001600020546103be919061177a565b600160003373ffffffffffffffffffffffffffffffffffffffff1673ffffffffffffffffffffffffffffffffffffffff168152602001908152602001600020819055503360008086815260200190815260200160002060006101000a81548173ffffffffffffffffffffffffffffffffffffffff021916908373ffffffffffffffffffffffffffffffffffffffff16021790555050505050565b60006020528060005260406000206000915054906101000a900473ffffffffffffffffffffffffffffffffffffffff1681565b6000600282815481106104a1576104a06116e8565b5b9060005260206000209060060201905060008160050160006101000a81548161ffff021916908361ffff160217905550600081600501600a6101000a81548173ffffffffffffffffffffffffffffffffffffffff021916908373ffffffffffffffffffffffffffffffffffffffff16021790555060018060003373ffffffffffffffffffffffffffffffffffffffff1673ffffffffffffffffffffffffffffffffffffffff16815260200190815260200160002054610560919061177a565b600160003373ffffffffffffffffffffffffffffffffffffffff1673ffffffffffffffffffffffffffffffffffffffff1681526020019081526020016000208190555060018060003073ffffffffffffffffffffffffffffffffffffffff1673ffffffffffffffffffffffffffffffffffffffff168152602001908152602001600020546105ee9190611746565b600160003073ffffffffffffffffffffffffffffffffffffffff1673ffffffffffffffffffffffffffffffffffffffff168152602001908152602001600020819055503360008084815260200190815260200160002060006101000a81548173ffffffffffffffffffffffffffffffffffffffff021916908373ffffffffffffffffffffffffffffffffffffffff1602179055505050565b60006002838154811061069c5761069b6116e8565b5b90600052602060002090600602019050818160050160006101000a81548161ffff021916908361ffff1602179055503381600501600a6101000a81548173ffffffffffffffffffffffffffffffffffffffff021916908373ffffffffffffffffffffffffffffffffffffffff16021790555060018060003373ffffffffffffffffffffffffffffffffffffffff1673ffffffffffffffffffffffffffffffffffffffff168152602001908152602001600020546107599190611746565b600160003373ffffffffffffffffffffffffffffffffffffffff1673ffffffffffffffffffffffffffffffffffffffff1681526020019081526020016000208190555060018060003073ffffffffffffffffffffffffffffffffffffffff1673ffffffffffffffffffffffffffffffffffffffff168152602001908152602001600020546107e7919061177a565b600160003073ffffffffffffffffffffffffffffffffffffffff1673ffffffffffffffffffffffffffffffffffffffff168152602001908152602001600020819055503060008085815260200190815260200160002060006101000a81548173ffffffffffffffffffffffffffffffffffffffff021916908373ffffffffffffffffffffffffffffffffffffffff160217905550505050565b6002818154811061089057600080fd5b90600052602060002090600602016000915090508060000154908060010180546108b9906117ff565b80601f01602080910402602001604051908101604052809291908181526020018280546108e5906117ff565b80156109325780601f1061090757610100808354040283529160200191610932565b820191906000526020600020905b81548152906001019060200180831161091557829003601f168201915b505050505090806002018054610947906117ff565b80601f0160208091040260200160405190810160405280929190818152602001828054610973906117ff565b80156109c05780601f10610995576101008083540402835291602001916109c0565b820191906000526020600020905b8154815290600101906020018083116109a357829003601f168201915b5050505050908060030160009054906101000a900461ffff16908060040180546109e9906117ff565b80601f0160208091040260200160405190810160405280929190818152602001828054610a15906117ff565b8015610a625780601f10610a3757610100808354040283529160200191610a62565b820191906000526020600020905b815481529060010190602001808311610a4557829003601f168201915b5050505050908060050160009054906101000a900461ffff16908060050160029054906101000a900461ffff16908060050160049054906101000a900461ffff16908060050160069054906101000a900461ffff16908060050160089054906101000a900461ffff169080600501600a9054906101000a900473ffffffffffffffffffffffffffffffffffffffff1690508b565b60606000600160008473ffffffffffffffffffffffffffffffffffffffff1673ffffffffffffffffffffffffffffffffffffffff1681526020019081526020016000205467ffffffffffffffff811115610b5357610b5261149f565b5b604051908082528060200260200182016040528015610b815781602001602082028036833780820191505090505b5090506000805b600280549050811015610c3d578473ffffffffffffffffffffffffffffffffffffffff1660008083815260200190815260200160002060009054906101000a900473ffffffffffffffffffffffffffffffffffffffff1673ffffffffffffffffffffffffffffffffffffffff161415610c2a5780838381518110610c0f57610c0e6116e8565b5b6020026020010181815250508180610c2690611831565b9250505b8080610c3590611831565b915050610b88565b508192505050919050565b60016020528060005260406000206000915090505481565b60026040518061016001604052808b81526020018a81526020018981526020018861ffff168152602001878152602001600061ffff1681526020018661ffff1681526020018561ffff1681526020018461ffff1681526020018361ffff168152602001600073ffffffffffffffffffffffffffffffffffffffff168152509080600181540180825580915050600190039060005260206000209060060201600090919091909150600082015181600001556020820151816001019080519060200190610d2d929190610f87565b506040820151816002019080519060200190610d4a929190610f87565b5060608201518160030160006101000a81548161ffff021916908361ffff1602179055506080820151816004019080519060200190610d8a929190610f87565b5060a08201518160050160006101000a81548161ffff021916908361ffff16021790555060c08201518160050160026101000a81548161ffff021916908361ffff16021790555060e08201518160050160046101000a81548161ffff021916908361ffff1602179055506101008201518160050160066101000a81548161ffff021916908361ffff1602179055506101208201518160050160086101000a81548161ffff021916908361ffff16021790555061014082015181600501600a6101000a81548173ffffffffffffffffffffffffffffffffffffffff021916908373ffffffffffffffffffffffffffffffffffffffff160217905550505060006001600280549050610e9a9190611746565b90503360008083815260200190815260200160002060006101000a81548173ffffffffffffffffffffffffffffffffffffffff021916908373ffffffffffffffffffffffffffffffffffffffff16021790555060018060003373ffffffffffffffffffffffffffffffffffffffff1673ffffffffffffffffffffffffffffffffffffffff16815260200190815260200160002054610f38919061177a565b600160003373ffffffffffffffffffffffffffffffffffffffff1673ffffffffffffffffffffffffffffffffffffffff1681526020019081526020016000208190555050505050505050505050565b828054610f93906117ff565b90600052602060002090601f016020900481019282610fb55760008555610ffc565b82601f10610fce57805160ff1916838001178555610ffc565b82800160010185558215610ffc579182015b82811115610ffb578251825591602001919060010190610fe0565b5b509050611009919061100d565b5090565b5b8082111561102657600081600090555060010161100e565b5090565b6000604051905090565b600080fd5b600080fd5b6000819050919050565b6110518161103e565b811461105c57600080fd5b50565b60008135905061106e81611048565b92915050565b600061ffff82169050919050565b61108b81611074565b811461109657600080fd5b50565b6000813590506110a881611082565b92915050565b600073ffffffffffffffffffffffffffffffffffffffff82169050919050565b60006110d9826110ae565b9050919050565b6110e9816110ce565b81146110f457600080fd5b50565b600081359050611106816110e0565b92915050565b60008060006060848603121561112557611124611034565b5b60006111338682870161105f565b935050602061114486828701611099565b9250506040611155868287016110f7565b9150509250925092565b60006020828403121561117557611174611034565b5b60006111838482850161105f565b91505092915050565b611195816110ce565b82525050565b60006020820190506111b0600083018461118c565b92915050565b600080604083850312156111cd576111cc611034565b5b60006111db8582860161105f565b92505060206111ec85828601611099565b9150509250929050565b6111ff8161103e565b82525050565b600081519050919050565b600082825260208201905092915050565b60005b8381101561123f578082015181840152602081019050611224565b8381111561124e576000848401525b50505050565b6000601f19601f8301169050919050565b600061127082611205565b61127a8185611210565b935061128a818560208601611221565b61129381611254565b840191505092915050565b6112a781611074565b82525050565b6000610160820190506112c3600083018e6111f6565b81810360208301526112d5818d611265565b905081810360408301526112e9818c611265565b90506112f8606083018b61129e565b818103608083015261130a818a611265565b905061131960a083018961129e565b61132660c083018861129e565b61133360e083018761129e565b61134161010083018661129e565b61134f61012083018561129e565b61135d61014083018461118c565b9c9b505050505050505050505050565b60006020828403121561138357611382611034565b5b6000611391848285016110f7565b91505092915050565b600081519050919050565b600082825260208201905092915050565b6000819050602082019050919050565b6113cf8161103e565b82525050565b60006113e183836113c6565b60208301905092915050565b6000602082019050919050565b60006114058261139a565b61140f81856113a5565b935061141a836113b6565b8060005b8381101561144b57815161143288826113d5565b975061143d836113ed565b92505060018101905061141e565b5085935050505092915050565b6000602082019050818103600083015261147281846113fa565b905092915050565b600060208201905061148f60008301846111f6565b92915050565b600080fd5b600080fd5b7f4e487b7100000000000000000000000000000000000000000000000000000000600052604160045260246000fd5b6114d782611254565b810181811067ffffffffffffffff821117156114f6576114f561149f565b5b80604052505050565b600061150961102a565b905061151582826114ce565b919050565b600067ffffffffffffffff8211156115355761153461149f565b5b61153e82611254565b9050602081019050919050565b82818337600083830152505050565b600061156d6115688461151a565b6114ff565b9050828152602081018484840111156115895761158861149a565b5b61159484828561154b565b509392505050565b600082601f8301126115b1576115b0611495565b5b81356115c184826020860161155a565b91505092915050565b60008060008060008060008060006101208a8c0312156115ed576115ec611034565b5b60006115fb8c828d0161105f565b99505060208a013567ffffffffffffffff81111561161c5761161b611039565b5b6116288c828d0161159c565b98505060408a013567ffffffffffffffff81111561164957611648611039565b5b6116558c828d0161159c565b97505060606116668c828d01611099565b96505060808a013567ffffffffffffffff81111561168757611686611039565b5b6116938c828d0161159c565b95505060a06116a48c828d01611099565b94505060c06116b58c828d01611099565b93505060e06116c68c828d01611099565b9250506101006116d88c828d01611099565b9150509295985092959850929598565b7f4e487b7100000000000000000000000000000000000000000000000000000000600052603260045260246000fd5b7f4e487b7100000000000000000000000000000000000000000000000000000000600052601160045260246000fd5b60006117518261103e565b915061175c8361103e565b92508282101561176f5761176e611717565b5b828203905092915050565b60006117858261103e565b91506117908361103e565b9250827fffffffffffffffffffffffffffffffffffffffffffffffffffffffffffffffff038211156117c5576117c4611717565b5b828201905092915050565b7f4e487b7100000000000000000000000000000000000000000000000000000000600052602260045260246000fd5b6000600282049050600182168061181757607f821691505b6020821081141561182b5761182a6117d0565b5b50919050565b600061183c8261103e565b91507fffffffffffffffffffffffffffffffffffffffffffffffffffffffffffffffff82141561186f5761186e611717565b5b60018201905091905056fea2646970667358221220b3c206370026eca7bf611d136eff30ef2e61ff0db61cd0113c864509c9be380e64736f6c634300080a0033",
  "immutableReferences": {},
  "source": "// SPDX-License-Identifier: MIT\npragma solidity >=0.4.22 <0.9.0;\n\ncontract NFT {\n    struct info_nft {\n        uint256 nft_id;\n        string name;\n        string picture;\n        uint16 reward;\n        string type_nft;\n        uint16 price;\n        uint16 cost_wood;\n        uint16 cost_fruit;\n        uint16 energy_consumed;\n        uint16 amount_food;\n        address seller;\n    }\n    mapping(uint256 => address) public ownerNft;\n    mapping(address => uint256) public ownerNFTCount;\n    info_nft[] public nft;\n\n    function _craftNFT(\n        uint256 _nft_id,\n        string memory _name,\n        string memory _picture,\n        uint16 _reward,\n        string memory _type_nft,\n        uint16 _cost_wood,\n        uint16 _cost_fruit,\n        uint16 _energy_consumed,\n        uint16 _amount_food\n    ) public {\n        nft.push(\n            info_nft(\n                _nft_id,\n                _name,\n                _picture,\n                _reward,\n                _type_nft,\n                0,\n                _cost_wood,\n                _cost_fruit,\n                _energy_consumed,\n                _amount_food,\n                address(0)\n            )\n        );\n        uint256 id = nft.length - 1;\n        ownerNft[id] = msg.sender;\n        ownerNFTCount[msg.sender] = ownerNFTCount[msg.sender] + 1;\n    }\n\n    function getNFTByOwner(address _owner)\n        public\n        view\n        returns (uint256[] memory)\n    {\n        uint256[] memory result = new uint256[](ownerNFTCount[_owner]);\n        uint256 counter = 0;\n        for (uint256 i = 0; i < nft.length; i++) {\n            if (ownerNft[i] == _owner) {\n                result[counter] = i;\n                counter++;\n            }\n        }\n        return result;\n    }\n\n    function sellNFT(uint256 _indexNFT, uint16 _price) public {\n        info_nft storage myNFT = nft[_indexNFT];\n        myNFT.price = _price;\n        myNFT.seller = msg.sender;\n        ownerNFTCount[msg.sender] = ownerNFTCount[msg.sender] - 1;\n        ownerNFTCount[address(this)] = ownerNFTCount[address(this)] + 1;\n        ownerNft[_indexNFT] = address(this);\n    }\n\n    function buyNFT(\n        uint256 _indexNFT,\n        uint16 _price,\n        address seller\n    ) public payable {\n        payable(seller).transfer(msg.value);\n        info_nft storage myNFT = nft[_indexNFT];\n        myNFT.price = _price;\n        myNFT.seller = address(0);\n        ownerNFTCount[address(this)] = ownerNFTCount[address(this)] - 1;\n        ownerNFTCount[msg.sender] = ownerNFTCount[msg.sender] + 1;\n        ownerNft[_indexNFT] = msg.sender;\n    }\n\n    function cancleNFT(uint256 _indexNFT) public {\n        info_nft storage myNFT = nft[_indexNFT];\n        myNFT.price = 0;\n        myNFT.seller = address(0);\n        ownerNFTCount[msg.sender] = ownerNFTCount[msg.sender] + 1;\n        ownerNFTCount[address(this)] = ownerNFTCount[address(this)] - 1;\n        ownerNft[_indexNFT] = msg.sender;\n    }\n}\n",
  "sourcePath": "/Users/komsark/Final-Project/Farm-Souvirniors-API/contracts/NFT.sol",
  "compiler": {
    "name": "solc",
    "version": "0.8.10+commit.fc410830.Emscripten.clang"
  },
  "schemaVersion": "3.4.4",
  "updatedAt": "2022-02-13T16:05:24.515Z",
  "networkType": "ethereum",
  "devdoc": {
    "kind": "dev",
    "methods": {},
    "version": 1
  },
  "userdoc": {
    "kind": "user",
    "methods": {},
    "version": 1
  }
}