{
  "contractName": "NFT",
  "abi": [
    {
      "inputs": [
        {
          "internalType": "uint256",
          "name": "",
          "type": "uint256"
        }
      ],
      "name": "nft",
      "outputs": [
        {
          "internalType": "string",
          "name": "name",
          "type": "string"
        },
        {
          "internalType": "uint16",
          "name": "reward",
          "type": "uint16"
        },
        {
          "internalType": "string",
          "name": "type_nft",
          "type": "string"
        },
        {
          "internalType": "uint16",
          "name": "price",
          "type": "uint16"
        },
        {
          "internalType": "uint16",
          "name": "cost_wood",
          "type": "uint16"
        },
        {
          "internalType": "uint16",
          "name": "cost_fruit",
          "type": "uint16"
        },
        {
          "internalType": "uint16",
          "name": "energy_consumed",
          "type": "uint16"
        },
        {
          "internalType": "uint16",
          "name": "amount_food",
          "type": "uint16"
        }
      ],
      "stateMutability": "view",
      "type": "function",
      "constant": true
    },
    {
      "inputs": [
        {
          "internalType": "address",
          "name": "",
          "type": "address"
        },
        {
          "internalType": "uint256",
          "name": "",
          "type": "uint256"
        }
      ],
      "name": "ownerNft",
      "outputs": [
        {
          "internalType": "uint256",
          "name": "",
          "type": "uint256"
        }
      ],
      "stateMutability": "view",
      "type": "function",
      "constant": true
    },
    {
      "inputs": [
        {
          "internalType": "uint256",
          "name": "_pid",
          "type": "uint256"
        },
        {
          "internalType": "string",
          "name": "_name",
          "type": "string"
        },
        {
          "internalType": "uint16",
          "name": "_reward",
          "type": "uint16"
        },
        {
          "internalType": "string",
          "name": "_type_nft",
          "type": "string"
        },
        {
          "internalType": "uint16",
          "name": "_cost_wood",
          "type": "uint16"
        },
        {
          "internalType": "uint16",
          "name": "_cost_fruit",
          "type": "uint16"
        },
        {
          "internalType": "uint16",
          "name": "_energy_consumed",
          "type": "uint16"
        },
        {
          "internalType": "uint16",
          "name": "_amount_food",
          "type": "uint16"
        }
      ],
      "name": "_craftNFT",
      "outputs": [],
      "stateMutability": "nonpayable",
      "type": "function"
    },
    {
      "inputs": [
        {
          "internalType": "address",
          "name": "_owner",
          "type": "address"
        }
      ],
      "name": "getNFTByOwner",
      "outputs": [
        {
          "internalType": "uint256[]",
          "name": "",
          "type": "uint256[]"
        }
      ],
      "stateMutability": "view",
      "type": "function",
      "constant": true
    }
  ],
  "bytecode": "0x608060405234801561001057600080fd5b50610c72806100206000396000f3fe608060405234801561001057600080fd5b506004361061004c5760003560e01c80639b83dfd0146100515780639d0214cb1461006d578063cb0c14c4146100a4578063f1fd4426146100d4575b600080fd5b61006b600480360381019061006691906107c8565b610104565b005b610087600480360381019061008291906108b6565b6102e8565b60405161009b98979695949392919061097a565b60405180910390f35b6100be60048036038101906100b99190610a64565b610494565b6040516100cb9190610b4f565b60405180910390f35b6100ee60048036038101906100e99190610b71565b61052a565b6040516100fb9190610bc0565b60405180910390f35b6040518061010001604052808881526020018761ffff168152602001868152602001600061ffff1681526020018561ffff1681526020018461ffff1681526020018361ffff1681526020018261ffff16815250600160008a8152602001908152602001600020600082015181600001908051906020019061018692919061055b565b5060208201518160010160006101000a81548161ffff021916908361ffff16021790555060408201518160020190805190602001906101c692919061055b565b5060608201518160030160006101000a81548161ffff021916908361ffff16021790555060808201518160030160026101000a81548161ffff021916908361ffff16021790555060a08201518160030160046101000a81548161ffff021916908361ffff16021790555060c08201518160030160066101000a81548161ffff021916908361ffff16021790555060e08201518160030160086101000a81548161ffff021916908361ffff1602179055509050506000803373ffffffffffffffffffffffffffffffffffffffff1673ffffffffffffffffffffffffffffffffffffffff1681526020019081526020016000208890806001815401808255809150506001900390600052602060002001600090919091909150555050505050505050565b600160205280600052604060002060009150905080600001805461030b90610c0a565b80601f016020809104026020016040519081016040528092919081815260200182805461033790610c0a565b80156103845780601f1061035957610100808354040283529160200191610384565b820191906000526020600020905b81548152906001019060200180831161036757829003601f168201915b5050505050908060010160009054906101000a900461ffff16908060020180546103ad90610c0a565b80601f01602080910402602001604051908101604052809291908181526020018280546103d990610c0a565b80156104265780601f106103fb57610100808354040283529160200191610426565b820191906000526020600020905b81548152906001019060200180831161040957829003601f168201915b5050505050908060030160009054906101000a900461ffff16908060030160029054906101000a900461ffff16908060030160049054906101000a900461ffff16908060030160069054906101000a900461ffff16908060030160089054906101000a900461ffff16905088565b60606000808373ffffffffffffffffffffffffffffffffffffffff1673ffffffffffffffffffffffffffffffffffffffff16815260200190815260200160002080548060200260200160405190810160405280929190818152602001828054801561051e57602002820191906000526020600020905b81548152602001906001019080831161050a575b50505050509050919050565b6000602052816000526040600020818154811061054657600080fd5b90600052602060002001600091509150505481565b82805461056790610c0a565b90600052602060002090601f01602090048101928261058957600085556105d0565b82601f106105a257805160ff19168380011785556105d0565b828001600101855582156105d0579182015b828111156105cf5782518255916020019190600101906105b4565b5b5090506105dd91906105e1565b5090565b5b808211156105fa5760008160009055506001016105e2565b5090565b6000604051905090565b600080fd5b600080fd5b6000819050919050565b61062581610612565b811461063057600080fd5b50565b6000813590506106428161061c565b92915050565b600080fd5b600080fd5b6000601f19601f8301169050919050565b7f4e487b7100000000000000000000000000000000000000000000000000000000600052604160045260246000fd5b61069b82610652565b810181811067ffffffffffffffff821117156106ba576106b9610663565b5b80604052505050565b60006106cd6105fe565b90506106d98282610692565b919050565b600067ffffffffffffffff8211156106f9576106f8610663565b5b61070282610652565b9050602081019050919050565b82818337600083830152505050565b600061073161072c846106de565b6106c3565b90508281526020810184848401111561074d5761074c61064d565b5b61075884828561070f565b509392505050565b600082601f83011261077557610774610648565b5b813561078584826020860161071e565b91505092915050565b600061ffff82169050919050565b6107a58161078e565b81146107b057600080fd5b50565b6000813590506107c28161079c565b92915050565b600080600080600080600080610100898b0312156107e9576107e8610608565b5b60006107f78b828c01610633565b985050602089013567ffffffffffffffff8111156108185761081761060d565b5b6108248b828c01610760565b97505060406108358b828c016107b3565b965050606089013567ffffffffffffffff8111156108565761085561060d565b5b6108628b828c01610760565b95505060806108738b828c016107b3565b94505060a06108848b828c016107b3565b93505060c06108958b828c016107b3565b92505060e06108a68b828c016107b3565b9150509295985092959890939650565b6000602082840312156108cc576108cb610608565b5b60006108da84828501610633565b91505092915050565b600081519050919050565b600082825260208201905092915050565b60005b8381101561091d578082015181840152602081019050610902565b8381111561092c576000848401525b50505050565b600061093d826108e3565b61094781856108ee565b93506109578185602086016108ff565b61096081610652565b840191505092915050565b6109748161078e565b82525050565b6000610100820190508181036000830152610995818b610932565b90506109a4602083018a61096b565b81810360408301526109b68189610932565b90506109c5606083018861096b565b6109d2608083018761096b565b6109df60a083018661096b565b6109ec60c083018561096b565b6109f960e083018461096b565b9998505050505050505050565b600073ffffffffffffffffffffffffffffffffffffffff82169050919050565b6000610a3182610a06565b9050919050565b610a4181610a26565b8114610a4c57600080fd5b50565b600081359050610a5e81610a38565b92915050565b600060208284031215610a7a57610a79610608565b5b6000610a8884828501610a4f565b91505092915050565b600081519050919050565b600082825260208201905092915050565b6000819050602082019050919050565b610ac681610612565b82525050565b6000610ad88383610abd565b60208301905092915050565b6000602082019050919050565b6000610afc82610a91565b610b068185610a9c565b9350610b1183610aad565b8060005b83811015610b42578151610b298882610acc565b9750610b3483610ae4565b925050600181019050610b15565b5085935050505092915050565b60006020820190508181036000830152610b698184610af1565b905092915050565b60008060408385031215610b8857610b87610608565b5b6000610b9685828601610a4f565b9250506020610ba785828601610633565b9150509250929050565b610bba81610612565b82525050565b6000602082019050610bd56000830184610bb1565b92915050565b7f4e487b7100000000000000000000000000000000000000000000000000000000600052602260045260246000fd5b60006002820490506001821680610c2257607f821691505b60208210811415610c3657610c35610bdb565b5b5091905056fea2646970667358221220a03e2bdc327757755dae4434830f5765c334d102da815e52e059de7958a6fa8f64736f6c634300080a0033",
  "immutableReferences": {},
  "source": "// SPDX-License-Identifier: MIT\npragma solidity >=0.4.22 <0.9.0;\n\ncontract NFT {\n    struct info_nft {\n        string name;\n        uint16 reward;\n        string type_nft;\n        uint16 price;\n        uint16 cost_wood;\n        uint16 cost_fruit;\n        uint16 energy_consumed;\n        uint16 amount_food;\n    }\n    mapping(address => uint256[]) public ownerNft;\n    mapping(uint256 => info_nft) public nft;\n    mapping(address => uint256) ownerNFTCount;\n\n    function _craftNFT(\n        uint256 _pid,\n        string memory _name,\n        uint16 _reward,\n        string memory _type_nft,\n        uint16 _cost_wood,\n        uint16 _cost_fruit,\n        uint16 _energy_consumed,\n        uint16 _amount_food\n    ) public {\n        nft[_pid] = info_nft({\n            name: _name,\n            reward: _reward,\n            type_nft: _type_nft,\n            price: 0,\n            cost_wood: _cost_wood,\n            cost_fruit: _cost_fruit,\n            energy_consumed: _energy_consumed,\n            amount_food : _amount_food\n        });\n        ownerNft[msg.sender].push(_pid);\n    }\n\n    function getNFTByOwner(address _owner)\n        public\n        view\n        returns (uint256[] memory)\n    {\n        return ownerNft[_owner];\n    }\n}\n",
  "sourcePath": "/Users/komsark/Final-Project/Farm-Souvirnirs-API/contracts/NFT.sol",
  "compiler": {
    "name": "solc",
    "version": "0.8.10+commit.fc410830.Emscripten.clang"
  },
  "schemaVersion": "3.4.4",
  "updatedAt": "2022-02-05T19:28:40.134Z",
  "networkType": "ethereum",
  "devdoc": {
    "kind": "dev",
    "methods": {},
    "version": 1
  },
  "userdoc": {
    "kind": "user",
    "methods": {},
    "version": 1
  }
}