{
  "contractName": "NFT",
  "abi": [
    {
      "inputs": [
        {
          "internalType": "uint256",
          "name": "",
          "type": "uint256"
        }
      ],
      "name": "nft",
      "outputs": [
        {
          "internalType": "uint256",
          "name": "nft_id",
          "type": "uint256"
        },
        {
          "internalType": "string",
          "name": "name",
          "type": "string"
        },
        {
          "internalType": "string",
          "name": "picture",
          "type": "string"
        },
        {
          "internalType": "uint16",
          "name": "reward",
          "type": "uint16"
        },
        {
          "internalType": "string",
          "name": "type_nft",
          "type": "string"
        },
        {
          "internalType": "uint16",
          "name": "price",
          "type": "uint16"
        },
        {
          "internalType": "uint16",
          "name": "cost_wood",
          "type": "uint16"
        },
        {
          "internalType": "uint16",
          "name": "cost_fruit",
          "type": "uint16"
        },
        {
          "internalType": "uint16",
          "name": "energy_consumed",
          "type": "uint16"
        },
        {
          "internalType": "uint16",
          "name": "amount_food",
          "type": "uint16"
        },
        {
          "internalType": "address",
          "name": "seller",
          "type": "address"
        }
      ],
      "stateMutability": "view",
      "type": "function",
      "constant": true
    },
    {
      "inputs": [
        {
          "internalType": "address",
          "name": "",
          "type": "address"
        }
      ],
      "name": "ownerNFTCount",
      "outputs": [
        {
          "internalType": "uint256",
          "name": "",
          "type": "uint256"
        }
      ],
      "stateMutability": "view",
      "type": "function",
      "constant": true
    },
    {
      "inputs": [
        {
          "internalType": "uint256",
          "name": "",
          "type": "uint256"
        }
      ],
      "name": "ownerNft",
      "outputs": [
        {
          "internalType": "address",
          "name": "",
          "type": "address"
        }
      ],
      "stateMutability": "view",
      "type": "function",
      "constant": true
    },
    {
      "inputs": [
        {
          "internalType": "uint256",
          "name": "_nft_id",
          "type": "uint256"
        },
        {
          "internalType": "string",
          "name": "_name",
          "type": "string"
        },
        {
          "internalType": "string",
          "name": "_picture",
          "type": "string"
        },
        {
          "internalType": "uint16",
          "name": "_reward",
          "type": "uint16"
        },
        {
          "internalType": "string",
          "name": "_type_nft",
          "type": "string"
        },
        {
          "internalType": "uint16",
          "name": "_cost_wood",
          "type": "uint16"
        },
        {
          "internalType": "uint16",
          "name": "_cost_fruit",
          "type": "uint16"
        },
        {
          "internalType": "uint16",
          "name": "_energy_consumed",
          "type": "uint16"
        },
        {
          "internalType": "uint16",
          "name": "_amount_food",
          "type": "uint16"
        }
      ],
      "name": "_craftNFT",
      "outputs": [],
      "stateMutability": "nonpayable",
      "type": "function"
    },
    {
      "inputs": [
        {
          "internalType": "address",
          "name": "_owner",
          "type": "address"
        }
      ],
      "name": "getNFTByOwner",
      "outputs": [
        {
          "internalType": "uint256[]",
          "name": "",
          "type": "uint256[]"
        }
      ],
      "stateMutability": "view",
      "type": "function",
      "constant": true
    },
    {
      "inputs": [
        {
          "internalType": "uint256",
          "name": "_tokenID",
          "type": "uint256"
        },
        {
          "internalType": "uint16",
          "name": "_price",
          "type": "uint16"
        }
      ],
      "name": "sellNFT",
      "outputs": [],
      "stateMutability": "nonpayable",
      "type": "function"
    }
  ],
  "bytecode": "0x608060405234801561001057600080fd5b50611373806100206000396000f3fe608060405234801561001057600080fd5b50600436106100625760003560e01c806321381d37146100675780633ac94a53146100975780639d0214cb146100b3578063cb0c14c4146100ed578063fb88df181461011d578063fda547ef1461014d575b600080fd5b610081600480360381019061007c9190610b8a565b610169565b60405161008e9190610bf8565b60405180910390f35b6100b160048036038101906100ac9190610c4d565b61019c565b005b6100cd60048036038101906100c89190610b8a565b610396565b6040516100e49b9a99989796959493929190610d44565b60405180910390f35b61010760048036038101906101029190610e30565b61060c565b6040516101149190610f1b565b60405180910390f35b61013760048036038101906101329190610e30565b61075e565b6040516101449190610f3d565b60405180910390f35b6101676004803603810190610162919061108d565b610776565b005b60006020528060005260406000206000915054906101000a900473ffffffffffffffffffffffffffffffffffffffff1681565b6000600283815481106101b2576101b16111ab565b5b90600052602060002090600602019050818160050160006101000a81548161ffff021916908361ffff1602179055503381600501600a6101000a81548173ffffffffffffffffffffffffffffffffffffffff021916908373ffffffffffffffffffffffffffffffffffffffff16021790555060018060003373ffffffffffffffffffffffffffffffffffffffff1673ffffffffffffffffffffffffffffffffffffffff1681526020019081526020016000205461026f9190611209565b600160003373ffffffffffffffffffffffffffffffffffffffff1673ffffffffffffffffffffffffffffffffffffffff1681526020019081526020016000208190555060018060003073ffffffffffffffffffffffffffffffffffffffff1673ffffffffffffffffffffffffffffffffffffffff168152602001908152602001600020546102fd919061123d565b600160003073ffffffffffffffffffffffffffffffffffffffff1673ffffffffffffffffffffffffffffffffffffffff168152602001908152602001600020819055503060008085815260200190815260200160002060006101000a81548173ffffffffffffffffffffffffffffffffffffffff021916908373ffffffffffffffffffffffffffffffffffffffff160217905550505050565b600281815481106103a657600080fd5b90600052602060002090600602016000915090508060000154908060010180546103cf906112c2565b80601f01602080910402602001604051908101604052809291908181526020018280546103fb906112c2565b80156104485780601f1061041d57610100808354040283529160200191610448565b820191906000526020600020905b81548152906001019060200180831161042b57829003601f168201915b50505050509080600201805461045d906112c2565b80601f0160208091040260200160405190810160405280929190818152602001828054610489906112c2565b80156104d65780601f106104ab576101008083540402835291602001916104d6565b820191906000526020600020905b8154815290600101906020018083116104b957829003601f168201915b5050505050908060030160009054906101000a900461ffff16908060040180546104ff906112c2565b80601f016020809104026020016040519081016040528092919081815260200182805461052b906112c2565b80156105785780601f1061054d57610100808354040283529160200191610578565b820191906000526020600020905b81548152906001019060200180831161055b57829003601f168201915b5050505050908060050160009054906101000a900461ffff16908060050160029054906101000a900461ffff16908060050160049054906101000a900461ffff16908060050160069054906101000a900461ffff16908060050160089054906101000a900461ffff169080600501600a9054906101000a900473ffffffffffffffffffffffffffffffffffffffff1690508b565b60606000600160008473ffffffffffffffffffffffffffffffffffffffff1673ffffffffffffffffffffffffffffffffffffffff1681526020019081526020016000205467ffffffffffffffff81111561066957610668610f62565b5b6040519080825280602002602001820160405280156106975781602001602082028036833780820191505090505b5090506000805b600280549050811015610753578473ffffffffffffffffffffffffffffffffffffffff1660008083815260200190815260200160002060009054906101000a900473ffffffffffffffffffffffffffffffffffffffff1673ffffffffffffffffffffffffffffffffffffffff1614156107405780838381518110610725576107246111ab565b5b602002602001018181525050818061073c906112f4565b9250505b808061074b906112f4565b91505061069e565b508192505050919050565b60016020528060005260406000206000915090505481565b60026040518061016001604052808b81526020018a81526020018981526020018861ffff168152602001878152602001600061ffff1681526020018661ffff1681526020018561ffff1681526020018461ffff1681526020018361ffff168152602001600073ffffffffffffffffffffffffffffffffffffffff168152509080600181540180825580915050600190039060005260206000209060060201600090919091909150600082015181600001556020820151816001019080519060200190610843929190610a9d565b506040820151816002019080519060200190610860929190610a9d565b5060608201518160030160006101000a81548161ffff021916908361ffff16021790555060808201518160040190805190602001906108a0929190610a9d565b5060a08201518160050160006101000a81548161ffff021916908361ffff16021790555060c08201518160050160026101000a81548161ffff021916908361ffff16021790555060e08201518160050160046101000a81548161ffff021916908361ffff1602179055506101008201518160050160066101000a81548161ffff021916908361ffff1602179055506101208201518160050160086101000a81548161ffff021916908361ffff16021790555061014082015181600501600a6101000a81548173ffffffffffffffffffffffffffffffffffffffff021916908373ffffffffffffffffffffffffffffffffffffffff1602179055505050600060016002805490506109b09190611209565b90503360008083815260200190815260200160002060006101000a81548173ffffffffffffffffffffffffffffffffffffffff021916908373ffffffffffffffffffffffffffffffffffffffff16021790555060018060003373ffffffffffffffffffffffffffffffffffffffff1673ffffffffffffffffffffffffffffffffffffffff16815260200190815260200160002054610a4e919061123d565b600160003373ffffffffffffffffffffffffffffffffffffffff1673ffffffffffffffffffffffffffffffffffffffff1681526020019081526020016000208190555050505050505050505050565b828054610aa9906112c2565b90600052602060002090601f016020900481019282610acb5760008555610b12565b82601f10610ae457805160ff1916838001178555610b12565b82800160010185558215610b12579182015b82811115610b11578251825591602001919060010190610af6565b5b509050610b1f9190610b23565b5090565b5b80821115610b3c576000816000905550600101610b24565b5090565b6000604051905090565b600080fd5b600080fd5b6000819050919050565b610b6781610b54565b8114610b7257600080fd5b50565b600081359050610b8481610b5e565b92915050565b600060208284031215610ba057610b9f610b4a565b5b6000610bae84828501610b75565b91505092915050565b600073ffffffffffffffffffffffffffffffffffffffff82169050919050565b6000610be282610bb7565b9050919050565b610bf281610bd7565b82525050565b6000602082019050610c0d6000830184610be9565b92915050565b600061ffff82169050919050565b610c2a81610c13565b8114610c3557600080fd5b50565b600081359050610c4781610c21565b92915050565b60008060408385031215610c6457610c63610b4a565b5b6000610c7285828601610b75565b9250506020610c8385828601610c38565b9150509250929050565b610c9681610b54565b82525050565b600081519050919050565b600082825260208201905092915050565b60005b83811015610cd6578082015181840152602081019050610cbb565b83811115610ce5576000848401525b50505050565b6000601f19601f8301169050919050565b6000610d0782610c9c565b610d118185610ca7565b9350610d21818560208601610cb8565b610d2a81610ceb565b840191505092915050565b610d3e81610c13565b82525050565b600061016082019050610d5a600083018e610c8d565b8181036020830152610d6c818d610cfc565b90508181036040830152610d80818c610cfc565b9050610d8f606083018b610d35565b8181036080830152610da1818a610cfc565b9050610db060a0830189610d35565b610dbd60c0830188610d35565b610dca60e0830187610d35565b610dd8610100830186610d35565b610de6610120830185610d35565b610df4610140830184610be9565b9c9b505050505050505050505050565b610e0d81610bd7565b8114610e1857600080fd5b50565b600081359050610e2a81610e04565b92915050565b600060208284031215610e4657610e45610b4a565b5b6000610e5484828501610e1b565b91505092915050565b600081519050919050565b600082825260208201905092915050565b6000819050602082019050919050565b610e9281610b54565b82525050565b6000610ea48383610e89565b60208301905092915050565b6000602082019050919050565b6000610ec882610e5d565b610ed28185610e68565b9350610edd83610e79565b8060005b83811015610f0e578151610ef58882610e98565b9750610f0083610eb0565b925050600181019050610ee1565b5085935050505092915050565b60006020820190508181036000830152610f358184610ebd565b905092915050565b6000602082019050610f526000830184610c8d565b92915050565b600080fd5b600080fd5b7f4e487b7100000000000000000000000000000000000000000000000000000000600052604160045260246000fd5b610f9a82610ceb565b810181811067ffffffffffffffff82111715610fb957610fb8610f62565b5b80604052505050565b6000610fcc610b40565b9050610fd88282610f91565b919050565b600067ffffffffffffffff821115610ff857610ff7610f62565b5b61100182610ceb565b9050602081019050919050565b82818337600083830152505050565b600061103061102b84610fdd565b610fc2565b90508281526020810184848401111561104c5761104b610f5d565b5b61105784828561100e565b509392505050565b600082601f83011261107457611073610f58565b5b813561108484826020860161101d565b91505092915050565b60008060008060008060008060006101208a8c0312156110b0576110af610b4a565b5b60006110be8c828d01610b75565b99505060208a013567ffffffffffffffff8111156110df576110de610b4f565b5b6110eb8c828d0161105f565b98505060408a013567ffffffffffffffff81111561110c5761110b610b4f565b5b6111188c828d0161105f565b97505060606111298c828d01610c38565b96505060808a013567ffffffffffffffff81111561114a57611149610b4f565b5b6111568c828d0161105f565b95505060a06111678c828d01610c38565b94505060c06111788c828d01610c38565b93505060e06111898c828d01610c38565b92505061010061119b8c828d01610c38565b9150509295985092959850929598565b7f4e487b7100000000000000000000000000000000000000000000000000000000600052603260045260246000fd5b7f4e487b7100000000000000000000000000000000000000000000000000000000600052601160045260246000fd5b600061121482610b54565b915061121f83610b54565b925082821015611232576112316111da565b5b828203905092915050565b600061124882610b54565b915061125383610b54565b9250827fffffffffffffffffffffffffffffffffffffffffffffffffffffffffffffffff03821115611288576112876111da565b5b828201905092915050565b7f4e487b7100000000000000000000000000000000000000000000000000000000600052602260045260246000fd5b600060028204905060018216806112da57607f821691505b602082108114156112ee576112ed611293565b5b50919050565b60006112ff82610b54565b91507fffffffffffffffffffffffffffffffffffffffffffffffffffffffffffffffff821415611332576113316111da565b5b60018201905091905056fea26469706673582212202358e52be139135270fbf0fb5ab23fae02a9555ee1a6e2a4d94847cd5089d34964736f6c634300080a0033",
  "immutableReferences": {},
  "source": "// SPDX-License-Identifier: MIT\npragma solidity >=0.4.22 <0.9.0;\ncontract NFT {\n    struct info_nft {\n        uint256 nft_id;\n        string name;\n        string picture;\n        uint16 reward;\n        string type_nft;\n        uint16 price;\n        uint16 cost_wood;\n        uint16 cost_fruit;\n        uint16 energy_consumed;\n        uint16 amount_food;\n        address seller;\n    }\n    mapping(uint256 => address) public ownerNft;\n    mapping(address => uint256) public ownerNFTCount;\n    info_nft[] public nft;\n\n    function _craftNFT(\n        uint256 _nft_id,\n        string memory _name,\n        string memory _picture,\n        uint16 _reward,\n        string memory _type_nft,\n        uint16 _cost_wood,\n        uint16 _cost_fruit,\n        uint16 _energy_consumed,\n        uint16 _amount_food\n    ) public {\n        nft.push(\n            info_nft(\n                _nft_id,\n                _name,\n                _picture,\n                _reward,\n                _type_nft,\n                0,\n                _cost_wood,\n                _cost_fruit,\n                _energy_consumed,\n                _amount_food,\n                address(0)\n            )\n        );\n        uint256 id = nft.length - 1;\n        ownerNft[id] = msg.sender;\n        ownerNFTCount[msg.sender] = ownerNFTCount[msg.sender] + 1;\n    }\n\n    function getNFTByOwner(address _owner)\n        public\n        view\n        returns (uint256[] memory)\n    {\n        uint256[] memory result = new uint256[](ownerNFTCount[_owner]);\n        uint256 counter = 0;\n        for (uint256 i = 0; i < nft.length; i++) {\n            if (ownerNft[i] == _owner) {\n                result[counter] = i;\n                counter++;\n            }\n        }\n        return result;\n    }\n\n    function sellNFT(uint256 _tokenID, uint16 _price) public {\n        info_nft storage myNFT = nft[_tokenID];\n        myNFT.price = _price;\n        myNFT.seller = msg.sender;\n        ownerNFTCount[msg.sender] = ownerNFTCount[msg.sender] - 1;\n        ownerNFTCount[address(this)] = ownerNFTCount[address(this)] + 1;\n        ownerNft[_tokenID] = address(this);\n    }\n}\n",
  "sourcePath": "/Users/komsark/Final-Project/Farm-Souvirniors-API/contracts/NFT.sol",
  "compiler": {
    "name": "solc",
    "version": "0.8.10+commit.fc410830.Emscripten.clang"
  },
  "schemaVersion": "3.4.4",
  "updatedAt": "2022-02-10T17:49:00.773Z",
  "networkType": "ethereum",
  "devdoc": {
    "kind": "dev",
    "methods": {},
    "version": 1
  },
  "userdoc": {
    "kind": "user",
    "methods": {},
    "version": 1
  }
}