{
  "contractName": "NFT",
  "abi": [
    {
      "inputs": [
        {
          "internalType": "uint256",
          "name": "",
          "type": "uint256"
        }
      ],
      "name": "nft",
      "outputs": [
        {
          "internalType": "uint256",
          "name": "nft_id",
          "type": "uint256"
        },
        {
          "internalType": "string",
          "name": "name",
          "type": "string"
        },
        {
          "internalType": "string",
          "name": "picture",
          "type": "string"
        },
        {
          "internalType": "uint16",
          "name": "reward",
          "type": "uint16"
        },
        {
          "internalType": "string",
          "name": "type_nft",
          "type": "string"
        },
        {
          "internalType": "uint16",
          "name": "price",
          "type": "uint16"
        },
        {
          "internalType": "uint16",
          "name": "cost_wood",
          "type": "uint16"
        },
        {
          "internalType": "uint16",
          "name": "cost_fruit",
          "type": "uint16"
        },
        {
          "internalType": "uint16",
          "name": "energy_consumed",
          "type": "uint16"
        },
        {
          "internalType": "uint16",
          "name": "amount_food",
          "type": "uint16"
        }
      ],
      "stateMutability": "view",
      "type": "function",
      "constant": true
    },
    {
      "inputs": [
        {
          "internalType": "uint256",
          "name": "",
          "type": "uint256"
        }
      ],
      "name": "ownerNft",
      "outputs": [
        {
          "internalType": "address",
          "name": "",
          "type": "address"
        }
      ],
      "stateMutability": "view",
      "type": "function",
      "constant": true
    },
    {
      "inputs": [
        {
          "internalType": "uint256",
          "name": "_nft_id",
          "type": "uint256"
        },
        {
          "internalType": "string",
          "name": "_name",
          "type": "string"
        },
        {
          "internalType": "string",
          "name": "_picture",
          "type": "string"
        },
        {
          "internalType": "uint16",
          "name": "_reward",
          "type": "uint16"
        },
        {
          "internalType": "string",
          "name": "_type_nft",
          "type": "string"
        },
        {
          "internalType": "uint16",
          "name": "_cost_wood",
          "type": "uint16"
        },
        {
          "internalType": "uint16",
          "name": "_cost_fruit",
          "type": "uint16"
        },
        {
          "internalType": "uint16",
          "name": "_energy_consumed",
          "type": "uint16"
        },
        {
          "internalType": "uint16",
          "name": "_amount_food",
          "type": "uint16"
        }
      ],
      "name": "_craftNFT",
      "outputs": [],
      "stateMutability": "nonpayable",
      "type": "function"
    },
    {
      "inputs": [
        {
          "internalType": "address",
          "name": "_owner",
          "type": "address"
        }
      ],
      "name": "getNFTByOwner",
      "outputs": [
        {
          "internalType": "uint256[]",
          "name": "",
          "type": "uint256[]"
        }
      ],
      "stateMutability": "view",
      "type": "function",
      "constant": true
    }
  ],
  "bytecode": "0x608060405234801561001057600080fd5b50611009806100206000396000f3fe608060405234801561001057600080fd5b506004361061004c5760003560e01c806321381d37146100515780639d0214cb14610081578063cb0c14c4146100ba578063fda547ef146100ea575b600080fd5b61006b6004803603810190610066919061088a565b610106565b60405161007891906108f8565b60405180910390f35b61009b6004803603810190610096919061088a565b610139565b6040516100b19a999897969594939291906109d8565b60405180910390f35b6100d460048036038101906100cf9190610ab5565b610389565b6040516100e19190610ba0565b60405180910390f35b61010460048036038101906100ff9190610d23565b6104db565b005b60006020528060005260406000206000915054906101000a900473ffffffffffffffffffffffffffffffffffffffff1681565b6002818154811061014957600080fd5b906000526020600020906006020160009150905080600001549080600101805461017290610e70565b80601f016020809104026020016040519081016040528092919081815260200182805461019e90610e70565b80156101eb5780601f106101c0576101008083540402835291602001916101eb565b820191906000526020600020905b8154815290600101906020018083116101ce57829003601f168201915b50505050509080600201805461020090610e70565b80601f016020809104026020016040519081016040528092919081815260200182805461022c90610e70565b80156102795780601f1061024e57610100808354040283529160200191610279565b820191906000526020600020905b81548152906001019060200180831161025c57829003601f168201915b5050505050908060030160009054906101000a900461ffff16908060040180546102a290610e70565b80601f01602080910402602001604051908101604052809291908181526020018280546102ce90610e70565b801561031b5780601f106102f05761010080835404028352916020019161031b565b820191906000526020600020905b8154815290600101906020018083116102fe57829003601f168201915b5050505050908060050160009054906101000a900461ffff16908060050160029054906101000a900461ffff16908060050160049054906101000a900461ffff16908060050160069054906101000a900461ffff16908060050160089054906101000a900461ffff1690508a565b60606000600160008473ffffffffffffffffffffffffffffffffffffffff1673ffffffffffffffffffffffffffffffffffffffff1681526020019081526020016000205467ffffffffffffffff8111156103e6576103e5610bcc565b5b6040519080825280602002602001820160405280156104145781602001602082028036833780820191505090505b5090506000805b6002805490508110156104d0578473ffffffffffffffffffffffffffffffffffffffff1660008083815260200190815260200160002060009054906101000a900473ffffffffffffffffffffffffffffffffffffffff1673ffffffffffffffffffffffffffffffffffffffff1614156104bd57808383815181106104a2576104a1610ea2565b5b60200260200101818152505081806104b990610f00565b9250505b80806104c890610f00565b91505061041b565b508192505050919050565b60026040518061014001604052808b81526020018a81526020018981526020018861ffff168152602001878152602001600061ffff1681526020018661ffff1681526020018561ffff1681526020018461ffff1681526020018361ffff16815250908060018154018082558091505060019003906000526020600020906006020160009091909190915060008201518160000155602082015181600101908051906020019061058b92919061079d565b5060408201518160020190805190602001906105a892919061079d565b5060608201518160030160006101000a81548161ffff021916908361ffff16021790555060808201518160040190805190602001906105e892919061079d565b5060a08201518160050160006101000a81548161ffff021916908361ffff16021790555060c08201518160050160026101000a81548161ffff021916908361ffff16021790555060e08201518160050160046101000a81548161ffff021916908361ffff1602179055506101008201518160050160066101000a81548161ffff021916908361ffff1602179055506101208201518160050160086101000a81548161ffff021916908361ffff1602179055505050600060016002805490506106b09190610f49565b90503360008083815260200190815260200160002060006101000a81548173ffffffffffffffffffffffffffffffffffffffff021916908373ffffffffffffffffffffffffffffffffffffffff16021790555060018060003373ffffffffffffffffffffffffffffffffffffffff1673ffffffffffffffffffffffffffffffffffffffff1681526020019081526020016000205461074e9190610f7d565b600160003373ffffffffffffffffffffffffffffffffffffffff1673ffffffffffffffffffffffffffffffffffffffff1681526020019081526020016000208190555050505050505050505050565b8280546107a990610e70565b90600052602060002090601f0160209004810192826107cb5760008555610812565b82601f106107e457805160ff1916838001178555610812565b82800160010185558215610812579182015b828111156108115782518255916020019190600101906107f6565b5b50905061081f9190610823565b5090565b5b8082111561083c576000816000905550600101610824565b5090565b6000604051905090565b600080fd5b600080fd5b6000819050919050565b61086781610854565b811461087257600080fd5b50565b6000813590506108848161085e565b92915050565b6000602082840312156108a05761089f61084a565b5b60006108ae84828501610875565b91505092915050565b600073ffffffffffffffffffffffffffffffffffffffff82169050919050565b60006108e2826108b7565b9050919050565b6108f2816108d7565b82525050565b600060208201905061090d60008301846108e9565b92915050565b61091c81610854565b82525050565b600081519050919050565b600082825260208201905092915050565b60005b8381101561095c578082015181840152602081019050610941565b8381111561096b576000848401525b50505050565b6000601f19601f8301169050919050565b600061098d82610922565b610997818561092d565b93506109a781856020860161093e565b6109b081610971565b840191505092915050565b600061ffff82169050919050565b6109d2816109bb565b82525050565b6000610140820190506109ee600083018d610913565b8181036020830152610a00818c610982565b90508181036040830152610a14818b610982565b9050610a23606083018a6109c9565b8181036080830152610a358189610982565b9050610a4460a08301886109c9565b610a5160c08301876109c9565b610a5e60e08301866109c9565b610a6c6101008301856109c9565b610a7a6101208301846109c9565b9b9a5050505050505050505050565b610a92816108d7565b8114610a9d57600080fd5b50565b600081359050610aaf81610a89565b92915050565b600060208284031215610acb57610aca61084a565b5b6000610ad984828501610aa0565b91505092915050565b600081519050919050565b600082825260208201905092915050565b6000819050602082019050919050565b610b1781610854565b82525050565b6000610b298383610b0e565b60208301905092915050565b6000602082019050919050565b6000610b4d82610ae2565b610b578185610aed565b9350610b6283610afe565b8060005b83811015610b93578151610b7a8882610b1d565b9750610b8583610b35565b925050600181019050610b66565b5085935050505092915050565b60006020820190508181036000830152610bba8184610b42565b905092915050565b600080fd5b600080fd5b7f4e487b7100000000000000000000000000000000000000000000000000000000600052604160045260246000fd5b610c0482610971565b810181811067ffffffffffffffff82111715610c2357610c22610bcc565b5b80604052505050565b6000610c36610840565b9050610c428282610bfb565b919050565b600067ffffffffffffffff821115610c6257610c61610bcc565b5b610c6b82610971565b9050602081019050919050565b82818337600083830152505050565b6000610c9a610c9584610c47565b610c2c565b905082815260208101848484011115610cb657610cb5610bc7565b5b610cc1848285610c78565b509392505050565b600082601f830112610cde57610cdd610bc2565b5b8135610cee848260208601610c87565b91505092915050565b610d00816109bb565b8114610d0b57600080fd5b50565b600081359050610d1d81610cf7565b92915050565b60008060008060008060008060006101208a8c031215610d4657610d4561084a565b5b6000610d548c828d01610875565b99505060208a013567ffffffffffffffff811115610d7557610d7461084f565b5b610d818c828d01610cc9565b98505060408a013567ffffffffffffffff811115610da257610da161084f565b5b610dae8c828d01610cc9565b9750506060610dbf8c828d01610d0e565b96505060808a013567ffffffffffffffff811115610de057610ddf61084f565b5b610dec8c828d01610cc9565b95505060a0610dfd8c828d01610d0e565b94505060c0610e0e8c828d01610d0e565b93505060e0610e1f8c828d01610d0e565b925050610100610e318c828d01610d0e565b9150509295985092959850929598565b7f4e487b7100000000000000000000000000000000000000000000000000000000600052602260045260246000fd5b60006002820490506001821680610e8857607f821691505b60208210811415610e9c57610e9b610e41565b5b50919050565b7f4e487b7100000000000000000000000000000000000000000000000000000000600052603260045260246000fd5b7f4e487b7100000000000000000000000000000000000000000000000000000000600052601160045260246000fd5b6000610f0b82610854565b91507fffffffffffffffffffffffffffffffffffffffffffffffffffffffffffffffff821415610f3e57610f3d610ed1565b5b600182019050919050565b6000610f5482610854565b9150610f5f83610854565b925082821015610f7257610f71610ed1565b5b828203905092915050565b6000610f8882610854565b9150610f9383610854565b9250827fffffffffffffffffffffffffffffffffffffffffffffffffffffffffffffffff03821115610fc857610fc7610ed1565b5b82820190509291505056fea2646970667358221220cc668c02ea4f8ad29bbedda31a06a8335f03387e2b984ac09f8c6efc19dc387664736f6c634300080a0033",
  "immutableReferences": {},
  "source": "// SPDX-License-Identifier: MIT\npragma solidity >=0.4.22 <0.9.0;\n\ncontract NFT {\n    struct info_nft {\n        uint256 nft_id;\n        string name;\n        string picture;\n        uint16 reward;\n        string type_nft;\n        uint16 price;\n        uint16 cost_wood;\n        uint16 cost_fruit;\n        uint16 energy_consumed;\n        uint16 amount_food;\n    }\n    mapping(uint256 => address) public ownerNft;\n    mapping(address => uint256) ownerNFTCount;\n    info_nft[] public nft;\n\n    function _craftNFT(\n        uint256 _nft_id,\n        string memory _name,\n        string memory _picture,\n        uint16 _reward,\n        string memory _type_nft,\n        uint16 _cost_wood,\n        uint16 _cost_fruit,\n        uint16 _energy_consumed,\n        uint16 _amount_food\n    ) public {\n        nft.push(\n            info_nft(\n                _nft_id,\n                _name,\n                _picture,\n                _reward,\n                _type_nft,\n                0,\n                _cost_wood,\n                _cost_fruit,\n                _energy_consumed,\n                _amount_food\n            )\n        );\n        uint256 id = nft.length - 1;\n        ownerNft[id] = msg.sender;\n        ownerNFTCount[msg.sender] = ownerNFTCount[msg.sender] + 1;\n    }\n\n    function getNFTByOwner(address _owner)\n        public\n        view\n        returns (uint256[] memory)\n    {\n        uint256[] memory result = new uint256[](ownerNFTCount[_owner]);\n        uint256 counter = 0;\n        for (uint256 i = 0; i < nft.length; i++) {\n            if (ownerNft[i] == _owner) {\n                result[counter] = i;\n                counter++;\n            }\n        }\n        return result;\n    }\n}\n",
  "sourcePath": "/Users/komsark/Final-Project/Farm-Souvirniors-API/contracts/NFT.sol",
  "compiler": {
    "name": "solc",
    "version": "0.8.10+commit.fc410830.Emscripten.clang"
  },
  "schemaVersion": "3.4.4",
  "updatedAt": "2022-02-10T06:32:08.372Z",
  "networkType": "ethereum",
  "devdoc": {
    "kind": "dev",
    "methods": {},
    "version": 1
  },
  "userdoc": {
    "kind": "user",
    "methods": {},
    "version": 1
  }
}