{
  "contractName": "NFT",
  "abi": [
    {
      "inputs": [
        {
          "internalType": "uint256",
          "name": "",
          "type": "uint256"
        }
      ],
      "name": "nft",
      "outputs": [
        {
          "internalType": "string",
          "name": "name",
          "type": "string"
        },
        {
          "internalType": "string",
          "name": "picture",
          "type": "string"
        },
        {
          "internalType": "uint16",
          "name": "reward",
          "type": "uint16"
        },
        {
          "internalType": "string",
          "name": "type_nft",
          "type": "string"
        },
        {
          "internalType": "uint16",
          "name": "price",
          "type": "uint16"
        },
        {
          "internalType": "uint16",
          "name": "cost_wood",
          "type": "uint16"
        },
        {
          "internalType": "uint16",
          "name": "cost_fruit",
          "type": "uint16"
        },
        {
          "internalType": "uint16",
          "name": "energy_consumed",
          "type": "uint16"
        },
        {
          "internalType": "uint16",
          "name": "amount_food",
          "type": "uint16"
        }
      ],
      "stateMutability": "view",
      "type": "function",
      "constant": true
    },
    {
      "inputs": [
        {
          "internalType": "address",
          "name": "",
          "type": "address"
        },
        {
          "internalType": "uint256",
          "name": "",
          "type": "uint256"
        }
      ],
      "name": "ownerNft",
      "outputs": [
        {
          "internalType": "uint256",
          "name": "",
          "type": "uint256"
        }
      ],
      "stateMutability": "view",
      "type": "function",
      "constant": true
    },
    {
      "inputs": [
        {
          "internalType": "uint256",
          "name": "_pid",
          "type": "uint256"
        },
        {
          "internalType": "string",
          "name": "_name",
          "type": "string"
        },
        {
          "internalType": "string",
          "name": "_picture",
          "type": "string"
        },
        {
          "internalType": "uint16",
          "name": "_reward",
          "type": "uint16"
        },
        {
          "internalType": "string",
          "name": "_type_nft",
          "type": "string"
        },
        {
          "internalType": "uint16",
          "name": "_cost_wood",
          "type": "uint16"
        },
        {
          "internalType": "uint16",
          "name": "_cost_fruit",
          "type": "uint16"
        },
        {
          "internalType": "uint16",
          "name": "_energy_consumed",
          "type": "uint16"
        },
        {
          "internalType": "uint16",
          "name": "_amount_food",
          "type": "uint16"
        }
      ],
      "name": "_craftNFT",
      "outputs": [],
      "stateMutability": "nonpayable",
      "type": "function"
    },
    {
      "inputs": [
        {
          "internalType": "address",
          "name": "_owner",
          "type": "address"
        }
      ],
      "name": "getNFTByOwner",
      "outputs": [
        {
          "internalType": "uint256[]",
          "name": "",
          "type": "uint256[]"
        }
      ],
      "stateMutability": "view",
      "type": "function",
      "constant": true
    }
  ],
  "bytecode": "0x608060405234801561001057600080fd5b50610d6c806100206000396000f3fe608060405234801561001057600080fd5b506004361061004c5760003560e01c80639d0214cb14610051578063cb0c14c414610089578063f1fd4426146100b9578063fda547ef146100e9575b600080fd5b61006b600480360381019061006691906106fc565b610105565b604051610080999897969594939291906107df565b60405180910390f35b6100a3600480360381019061009e91906108df565b61033f565b6040516100b091906109ca565b60405180910390f35b6100d360048036038101906100ce91906109ec565b6103d5565b6040516100e09190610a3b565b60405180910390f35b61010360048036038101906100fe9190610bb7565b610406565b005b600160205280600052604060002060009150905080600001805461012890610d04565b80601f016020809104026020016040519081016040528092919081815260200182805461015490610d04565b80156101a15780601f10610176576101008083540402835291602001916101a1565b820191906000526020600020905b81548152906001019060200180831161018457829003601f168201915b5050505050908060010180546101b690610d04565b80601f01602080910402602001604051908101604052809291908181526020018280546101e290610d04565b801561022f5780601f106102045761010080835404028352916020019161022f565b820191906000526020600020905b81548152906001019060200180831161021257829003601f168201915b5050505050908060020160009054906101000a900461ffff169080600301805461025890610d04565b80601f016020809104026020016040519081016040528092919081815260200182805461028490610d04565b80156102d15780601f106102a6576101008083540402835291602001916102d1565b820191906000526020600020905b8154815290600101906020018083116102b457829003601f168201915b5050505050908060040160009054906101000a900461ffff16908060040160029054906101000a900461ffff16908060040160049054906101000a900461ffff16908060040160069054906101000a900461ffff16908060040160089054906101000a900461ffff16905089565b60606000808373ffffffffffffffffffffffffffffffffffffffff1673ffffffffffffffffffffffffffffffffffffffff1681526020019081526020016000208054806020026020016040519081016040528092919081815260200182805480156103c957602002820191906000526020600020905b8154815260200190600101908083116103b5575b50505050509050919050565b600060205281600052604060002081815481106103f157600080fd5b90600052602060002001600091509150505481565b6040518061012001604052808981526020018881526020018761ffff168152602001868152602001600061ffff1681526020018561ffff1681526020018461ffff1681526020018361ffff1681526020018261ffff16815250600160008b8152602001908152602001600020600082015181600001908051906020019061048e92919061060f565b5060208201518160010190805190602001906104ab92919061060f565b5060408201518160020160006101000a81548161ffff021916908361ffff16021790555060608201518160030190805190602001906104eb92919061060f565b5060808201518160040160006101000a81548161ffff021916908361ffff16021790555060a08201518160040160026101000a81548161ffff021916908361ffff16021790555060c08201518160040160046101000a81548161ffff021916908361ffff16021790555060e08201518160040160066101000a81548161ffff021916908361ffff1602179055506101008201518160040160086101000a81548161ffff021916908361ffff1602179055509050506000803373ffffffffffffffffffffffffffffffffffffffff1673ffffffffffffffffffffffffffffffffffffffff168152602001908152602001600020899080600181540180825580915050600190039060005260206000200160009091909190915055505050505050505050565b82805461061b90610d04565b90600052602060002090601f01602090048101928261063d5760008555610684565b82601f1061065657805160ff1916838001178555610684565b82800160010185558215610684579182015b82811115610683578251825591602001919060010190610668565b5b5090506106919190610695565b5090565b5b808211156106ae576000816000905550600101610696565b5090565b6000604051905090565b600080fd5b600080fd5b6000819050919050565b6106d9816106c6565b81146106e457600080fd5b50565b6000813590506106f6816106d0565b92915050565b600060208284031215610712576107116106bc565b5b6000610720848285016106e7565b91505092915050565b600081519050919050565b600082825260208201905092915050565b60005b83811015610763578082015181840152602081019050610748565b83811115610772576000848401525b50505050565b6000601f19601f8301169050919050565b600061079482610729565b61079e8185610734565b93506107ae818560208601610745565b6107b781610778565b840191505092915050565b600061ffff82169050919050565b6107d9816107c2565b82525050565b60006101208201905081810360008301526107fa818c610789565b9050818103602083015261080e818b610789565b905061081d604083018a6107d0565b818103606083015261082f8189610789565b905061083e60808301886107d0565b61084b60a08301876107d0565b61085860c08301866107d0565b61086560e08301856107d0565b6108736101008301846107d0565b9a9950505050505050505050565b600073ffffffffffffffffffffffffffffffffffffffff82169050919050565b60006108ac82610881565b9050919050565b6108bc816108a1565b81146108c757600080fd5b50565b6000813590506108d9816108b3565b92915050565b6000602082840312156108f5576108f46106bc565b5b6000610903848285016108ca565b91505092915050565b600081519050919050565b600082825260208201905092915050565b6000819050602082019050919050565b610941816106c6565b82525050565b60006109538383610938565b60208301905092915050565b6000602082019050919050565b60006109778261090c565b6109818185610917565b935061098c83610928565b8060005b838110156109bd5781516109a48882610947565b97506109af8361095f565b925050600181019050610990565b5085935050505092915050565b600060208201905081810360008301526109e4818461096c565b905092915050565b60008060408385031215610a0357610a026106bc565b5b6000610a11858286016108ca565b9250506020610a22858286016106e7565b9150509250929050565b610a35816106c6565b82525050565b6000602082019050610a506000830184610a2c565b92915050565b600080fd5b600080fd5b7f4e487b7100000000000000000000000000000000000000000000000000000000600052604160045260246000fd5b610a9882610778565b810181811067ffffffffffffffff82111715610ab757610ab6610a60565b5b80604052505050565b6000610aca6106b2565b9050610ad68282610a8f565b919050565b600067ffffffffffffffff821115610af657610af5610a60565b5b610aff82610778565b9050602081019050919050565b82818337600083830152505050565b6000610b2e610b2984610adb565b610ac0565b905082815260208101848484011115610b4a57610b49610a5b565b5b610b55848285610b0c565b509392505050565b600082601f830112610b7257610b71610a56565b5b8135610b82848260208601610b1b565b91505092915050565b610b94816107c2565b8114610b9f57600080fd5b50565b600081359050610bb181610b8b565b92915050565b60008060008060008060008060006101208a8c031215610bda57610bd96106bc565b5b6000610be88c828d016106e7565b99505060208a013567ffffffffffffffff811115610c0957610c086106c1565b5b610c158c828d01610b5d565b98505060408a013567ffffffffffffffff811115610c3657610c356106c1565b5b610c428c828d01610b5d565b9750506060610c538c828d01610ba2565b96505060808a013567ffffffffffffffff811115610c7457610c736106c1565b5b610c808c828d01610b5d565b95505060a0610c918c828d01610ba2565b94505060c0610ca28c828d01610ba2565b93505060e0610cb38c828d01610ba2565b925050610100610cc58c828d01610ba2565b9150509295985092959850929598565b7f4e487b7100000000000000000000000000000000000000000000000000000000600052602260045260246000fd5b60006002820490506001821680610d1c57607f821691505b60208210811415610d3057610d2f610cd5565b5b5091905056fea2646970667358221220e2782aca6133c1df379099aac51d81eb33533a64cb18ee26c61e1b7e0a49313364736f6c634300080a0033",
  "immutableReferences": {},
  "source": "// SPDX-License-Identifier: MIT\npragma solidity >=0.4.22 <0.9.0;\n\ncontract NFT {\n    struct info_nft {\n        string name;\n        string picture;\n        uint16 reward;\n        string type_nft;\n        uint16 price;\n        uint16 cost_wood;\n        uint16 cost_fruit;\n        uint16 energy_consumed;\n        uint16 amount_food;\n    }\n    mapping(address => uint256[]) public ownerNft;\n    mapping(uint256 => info_nft) public nft;\n    mapping(address => uint256) ownerNFTCount;\n\n    function _craftNFT(\n        uint256 _pid,\n        string memory _name,\n        string memory _picture,\n        uint16 _reward,\n        string memory _type_nft,\n        uint16 _cost_wood,\n        uint16 _cost_fruit,\n        uint16 _energy_consumed,\n        uint16 _amount_food\n    ) public {\n        nft[_pid] = info_nft({\n            name: _name,\n            picture : _picture,\n            reward: _reward,\n            type_nft: _type_nft,\n            price: 0,\n            cost_wood: _cost_wood,\n            cost_fruit: _cost_fruit,\n            energy_consumed: _energy_consumed,\n            amount_food : _amount_food\n        });\n        ownerNft[msg.sender].push(_pid);\n    }\n\n    function getNFTByOwner(address _owner)\n        public\n        view\n        returns (uint256[] memory)\n    {\n        return ownerNft[_owner];\n    }\n    \n}\n",
  "sourcePath": "/Users/komsark/Final-Project/Farm-Souvirniors-API/contracts/NFT.sol",
  "compiler": {
    "name": "solc",
    "version": "0.8.10+commit.fc410830.Emscripten.clang"
  },
  "schemaVersion": "3.4.4",
  "updatedAt": "2022-02-08T06:03:16.068Z",
  "networkType": "ethereum",
  "devdoc": {
    "kind": "dev",
    "methods": {},
    "version": 1
  },
  "userdoc": {
    "kind": "user",
    "methods": {},
    "version": 1
  }
}