{
  "contractName": "NFT",
  "abi": [
    {
      "inputs": [
        {
          "internalType": "uint256",
          "name": "",
          "type": "uint256"
        }
      ],
      "name": "nft",
      "outputs": [
        {
          "internalType": "uint256",
          "name": "nft_id",
          "type": "uint256"
        },
        {
          "internalType": "string",
          "name": "name",
          "type": "string"
        },
        {
          "internalType": "string",
          "name": "picture",
          "type": "string"
        },
        {
          "internalType": "uint16",
          "name": "reward",
          "type": "uint16"
        },
        {
          "internalType": "string",
          "name": "type_nft",
          "type": "string"
        },
        {
          "internalType": "uint16",
          "name": "price",
          "type": "uint16"
        },
        {
          "internalType": "uint16",
          "name": "cost_wood",
          "type": "uint16"
        },
        {
          "internalType": "uint16",
          "name": "cost_fruit",
          "type": "uint16"
        },
        {
          "internalType": "uint16",
          "name": "energy_consumed",
          "type": "uint16"
        },
        {
          "internalType": "uint16",
          "name": "amount_food",
          "type": "uint16"
        },
        {
          "internalType": "address",
          "name": "seller",
          "type": "address"
        }
      ],
      "stateMutability": "view",
      "type": "function",
      "constant": true
    },
    {
      "inputs": [
        {
          "internalType": "address",
          "name": "",
          "type": "address"
        }
      ],
      "name": "ownerNFTCount",
      "outputs": [
        {
          "internalType": "uint256",
          "name": "",
          "type": "uint256"
        }
      ],
      "stateMutability": "view",
      "type": "function",
      "constant": true
    },
    {
      "inputs": [
        {
          "internalType": "uint256",
          "name": "",
          "type": "uint256"
        }
      ],
      "name": "ownerNft",
      "outputs": [
        {
          "internalType": "address",
          "name": "",
          "type": "address"
        }
      ],
      "stateMutability": "view",
      "type": "function",
      "constant": true
    },
    {
      "inputs": [
        {
          "internalType": "uint256",
          "name": "_nft_id",
          "type": "uint256"
        },
        {
          "internalType": "string",
          "name": "_name",
          "type": "string"
        },
        {
          "internalType": "string",
          "name": "_picture",
          "type": "string"
        },
        {
          "internalType": "uint16",
          "name": "_reward",
          "type": "uint16"
        },
        {
          "internalType": "string",
          "name": "_type_nft",
          "type": "string"
        },
        {
          "internalType": "uint16",
          "name": "_cost_wood",
          "type": "uint16"
        },
        {
          "internalType": "uint16",
          "name": "_cost_fruit",
          "type": "uint16"
        },
        {
          "internalType": "uint16",
          "name": "_energy_consumed",
          "type": "uint16"
        },
        {
          "internalType": "uint16",
          "name": "_amount_food",
          "type": "uint16"
        }
      ],
      "name": "_craftNFT",
      "outputs": [],
      "stateMutability": "nonpayable",
      "type": "function"
    },
    {
      "inputs": [
        {
          "internalType": "address",
          "name": "_owner",
          "type": "address"
        }
      ],
      "name": "getNFTByOwner",
      "outputs": [
        {
          "internalType": "uint256[]",
          "name": "",
          "type": "uint256[]"
        }
      ],
      "stateMutability": "view",
      "type": "function",
      "constant": true
    },
    {
      "inputs": [
        {
          "internalType": "uint256",
          "name": "_tokenID",
          "type": "uint256"
        },
        {
          "internalType": "uint16",
          "name": "_price",
          "type": "uint16"
        }
      ],
      "name": "sellNFT",
      "outputs": [],
      "stateMutability": "nonpayable",
      "type": "function"
    },
    {
      "inputs": [
        {
          "internalType": "uint256",
          "name": "_tokenID",
          "type": "uint256"
        },
        {
          "internalType": "uint16",
          "name": "_price",
          "type": "uint16"
        },
        {
          "internalType": "address",
          "name": "seller",
          "type": "address"
        }
      ],
      "name": "buyNFT",
      "outputs": [],
      "stateMutability": "payable",
      "type": "function",
      "payable": true
    }
  ],
  "bytecode": "0x608060405234801561001057600080fd5b50611734806100206000396000f3fe6080604052600436106100705760003560e01c80639d0214cb1161004e5780639d0214cb146100f7578063cb0c14c41461013e578063fb88df181461017b578063fda547ef146101b857610070565b8063048484491461007557806321381d37146100915780633ac94a53146100ce575b600080fd5b61008f600480360381019061008a9190610f24565b6101e1565b005b34801561009d57600080fd5b506100b860048036038101906100b39190610f77565b61046b565b6040516100c59190610fb3565b60405180910390f35b3480156100da57600080fd5b506100f560048036038101906100f09190610fce565b61049e565b005b34801561010357600080fd5b5061011e60048036038101906101199190610f77565b610698565b6040516101359b9a999897969594939291906110c5565b60405180910390f35b34801561014a57600080fd5b5061016560048036038101906101609190611185565b61090e565b6040516101729190611270565b60405180910390f35b34801561018757600080fd5b506101a2600480360381019061019d9190611185565b610a60565b6040516101af9190611292565b60405180910390f35b3480156101c457600080fd5b506101df60048036038101906101da91906113e2565b610a78565b005b8161ffff16341415610228576040517f08c379a000000000000000000000000000000000000000000000000000000000815260040161021f9061154c565b60405180910390fd5b8073ffffffffffffffffffffffffffffffffffffffff166108fc349081150290604051600060405180830381858888f1935050505015801561026e573d6000803e3d6000fd5b506000600284815481106102855761028461156c565b5b90600052602060002090600602019050828160050160006101000a81548161ffff021916908361ffff160217905550600081600501600a6101000a81548173ffffffffffffffffffffffffffffffffffffffff021916908373ffffffffffffffffffffffffffffffffffffffff16021790555060018060003073ffffffffffffffffffffffffffffffffffffffff1673ffffffffffffffffffffffffffffffffffffffff1681526020019081526020016000205461034391906115ca565b600160003073ffffffffffffffffffffffffffffffffffffffff1673ffffffffffffffffffffffffffffffffffffffff1681526020019081526020016000208190555060018060003373ffffffffffffffffffffffffffffffffffffffff1673ffffffffffffffffffffffffffffffffffffffff168152602001908152602001600020546103d191906115fe565b600160003373ffffffffffffffffffffffffffffffffffffffff1673ffffffffffffffffffffffffffffffffffffffff168152602001908152602001600020819055503360008086815260200190815260200160002060006101000a81548173ffffffffffffffffffffffffffffffffffffffff021916908373ffffffffffffffffffffffffffffffffffffffff16021790555050505050565b60006020528060005260406000206000915054906101000a900473ffffffffffffffffffffffffffffffffffffffff1681565b6000600283815481106104b4576104b361156c565b5b90600052602060002090600602019050818160050160006101000a81548161ffff021916908361ffff1602179055503381600501600a6101000a81548173ffffffffffffffffffffffffffffffffffffffff021916908373ffffffffffffffffffffffffffffffffffffffff16021790555060018060003373ffffffffffffffffffffffffffffffffffffffff1673ffffffffffffffffffffffffffffffffffffffff1681526020019081526020016000205461057191906115ca565b600160003373ffffffffffffffffffffffffffffffffffffffff1673ffffffffffffffffffffffffffffffffffffffff1681526020019081526020016000208190555060018060003073ffffffffffffffffffffffffffffffffffffffff1673ffffffffffffffffffffffffffffffffffffffff168152602001908152602001600020546105ff91906115fe565b600160003073ffffffffffffffffffffffffffffffffffffffff1673ffffffffffffffffffffffffffffffffffffffff168152602001908152602001600020819055503060008085815260200190815260200160002060006101000a81548173ffffffffffffffffffffffffffffffffffffffff021916908373ffffffffffffffffffffffffffffffffffffffff160217905550505050565b600281815481106106a857600080fd5b90600052602060002090600602016000915090508060000154908060010180546106d190611683565b80601f01602080910402602001604051908101604052809291908181526020018280546106fd90611683565b801561074a5780601f1061071f5761010080835404028352916020019161074a565b820191906000526020600020905b81548152906001019060200180831161072d57829003601f168201915b50505050509080600201805461075f90611683565b80601f016020809104026020016040519081016040528092919081815260200182805461078b90611683565b80156107d85780601f106107ad576101008083540402835291602001916107d8565b820191906000526020600020905b8154815290600101906020018083116107bb57829003601f168201915b5050505050908060030160009054906101000a900461ffff169080600401805461080190611683565b80601f016020809104026020016040519081016040528092919081815260200182805461082d90611683565b801561087a5780601f1061084f5761010080835404028352916020019161087a565b820191906000526020600020905b81548152906001019060200180831161085d57829003601f168201915b5050505050908060050160009054906101000a900461ffff16908060050160029054906101000a900461ffff16908060050160049054906101000a900461ffff16908060050160069054906101000a900461ffff16908060050160089054906101000a900461ffff169080600501600a9054906101000a900473ffffffffffffffffffffffffffffffffffffffff1690508b565b60606000600160008473ffffffffffffffffffffffffffffffffffffffff1673ffffffffffffffffffffffffffffffffffffffff1681526020019081526020016000205467ffffffffffffffff81111561096b5761096a6112b7565b5b6040519080825280602002602001820160405280156109995781602001602082028036833780820191505090505b5090506000805b600280549050811015610a55578473ffffffffffffffffffffffffffffffffffffffff1660008083815260200190815260200160002060009054906101000a900473ffffffffffffffffffffffffffffffffffffffff1673ffffffffffffffffffffffffffffffffffffffff161415610a425780838381518110610a2757610a2661156c565b5b6020026020010181815250508180610a3e906116b5565b9250505b8080610a4d906116b5565b9150506109a0565b508192505050919050565b60016020528060005260406000206000915090505481565b60026040518061016001604052808b81526020018a81526020018981526020018861ffff168152602001878152602001600061ffff1681526020018661ffff1681526020018561ffff1681526020018461ffff1681526020018361ffff168152602001600073ffffffffffffffffffffffffffffffffffffffff168152509080600181540180825580915050600190039060005260206000209060060201600090919091909150600082015181600001556020820151816001019080519060200190610b45929190610d9f565b506040820151816002019080519060200190610b62929190610d9f565b5060608201518160030160006101000a81548161ffff021916908361ffff1602179055506080820151816004019080519060200190610ba2929190610d9f565b5060a08201518160050160006101000a81548161ffff021916908361ffff16021790555060c08201518160050160026101000a81548161ffff021916908361ffff16021790555060e08201518160050160046101000a81548161ffff021916908361ffff1602179055506101008201518160050160066101000a81548161ffff021916908361ffff1602179055506101208201518160050160086101000a81548161ffff021916908361ffff16021790555061014082015181600501600a6101000a81548173ffffffffffffffffffffffffffffffffffffffff021916908373ffffffffffffffffffffffffffffffffffffffff160217905550505060006001600280549050610cb291906115ca565b90503360008083815260200190815260200160002060006101000a81548173ffffffffffffffffffffffffffffffffffffffff021916908373ffffffffffffffffffffffffffffffffffffffff16021790555060018060003373ffffffffffffffffffffffffffffffffffffffff1673ffffffffffffffffffffffffffffffffffffffff16815260200190815260200160002054610d5091906115fe565b600160003373ffffffffffffffffffffffffffffffffffffffff1673ffffffffffffffffffffffffffffffffffffffff1681526020019081526020016000208190555050505050505050505050565b828054610dab90611683565b90600052602060002090601f016020900481019282610dcd5760008555610e14565b82601f10610de657805160ff1916838001178555610e14565b82800160010185558215610e14579182015b82811115610e13578251825591602001919060010190610df8565b5b509050610e219190610e25565b5090565b5b80821115610e3e576000816000905550600101610e26565b5090565b6000604051905090565b600080fd5b600080fd5b6000819050919050565b610e6981610e56565b8114610e7457600080fd5b50565b600081359050610e8681610e60565b92915050565b600061ffff82169050919050565b610ea381610e8c565b8114610eae57600080fd5b50565b600081359050610ec081610e9a565b92915050565b600073ffffffffffffffffffffffffffffffffffffffff82169050919050565b6000610ef182610ec6565b9050919050565b610f0181610ee6565b8114610f0c57600080fd5b50565b600081359050610f1e81610ef8565b92915050565b600080600060608486031215610f3d57610f3c610e4c565b5b6000610f4b86828701610e77565b9350506020610f5c86828701610eb1565b9250506040610f6d86828701610f0f565b9150509250925092565b600060208284031215610f8d57610f8c610e4c565b5b6000610f9b84828501610e77565b91505092915050565b610fad81610ee6565b82525050565b6000602082019050610fc86000830184610fa4565b92915050565b60008060408385031215610fe557610fe4610e4c565b5b6000610ff385828601610e77565b925050602061100485828601610eb1565b9150509250929050565b61101781610e56565b82525050565b600081519050919050565b600082825260208201905092915050565b60005b8381101561105757808201518184015260208101905061103c565b83811115611066576000848401525b50505050565b6000601f19601f8301169050919050565b60006110888261101d565b6110928185611028565b93506110a2818560208601611039565b6110ab8161106c565b840191505092915050565b6110bf81610e8c565b82525050565b6000610160820190506110db600083018e61100e565b81810360208301526110ed818d61107d565b90508181036040830152611101818c61107d565b9050611110606083018b6110b6565b8181036080830152611122818a61107d565b905061113160a08301896110b6565b61113e60c08301886110b6565b61114b60e08301876110b6565b6111596101008301866110b6565b6111676101208301856110b6565b611175610140830184610fa4565b9c9b505050505050505050505050565b60006020828403121561119b5761119a610e4c565b5b60006111a984828501610f0f565b91505092915050565b600081519050919050565b600082825260208201905092915050565b6000819050602082019050919050565b6111e781610e56565b82525050565b60006111f983836111de565b60208301905092915050565b6000602082019050919050565b600061121d826111b2565b61122781856111bd565b9350611232836111ce565b8060005b8381101561126357815161124a88826111ed565b975061125583611205565b925050600181019050611236565b5085935050505092915050565b6000602082019050818103600083015261128a8184611212565b905092915050565b60006020820190506112a7600083018461100e565b92915050565b600080fd5b600080fd5b7f4e487b7100000000000000000000000000000000000000000000000000000000600052604160045260246000fd5b6112ef8261106c565b810181811067ffffffffffffffff8211171561130e5761130d6112b7565b5b80604052505050565b6000611321610e42565b905061132d82826112e6565b919050565b600067ffffffffffffffff82111561134d5761134c6112b7565b5b6113568261106c565b9050602081019050919050565b82818337600083830152505050565b600061138561138084611332565b611317565b9050828152602081018484840111156113a1576113a06112b2565b5b6113ac848285611363565b509392505050565b600082601f8301126113c9576113c86112ad565b5b81356113d9848260208601611372565b91505092915050565b60008060008060008060008060006101208a8c03121561140557611404610e4c565b5b60006114138c828d01610e77565b99505060208a013567ffffffffffffffff81111561143457611433610e51565b5b6114408c828d016113b4565b98505060408a013567ffffffffffffffff81111561146157611460610e51565b5b61146d8c828d016113b4565b975050606061147e8c828d01610eb1565b96505060808a013567ffffffffffffffff81111561149f5761149e610e51565b5b6114ab8c828d016113b4565b95505060a06114bc8c828d01610eb1565b94505060c06114cd8c828d01610eb1565b93505060e06114de8c828d01610eb1565b9250506101006114f08c828d01610eb1565b9150509295985092959850929598565b7f496e73756666696369656e74207061796d656e74000000000000000000000000600082015250565b6000611536601483611028565b915061154182611500565b602082019050919050565b6000602082019050818103600083015261156581611529565b9050919050565b7f4e487b7100000000000000000000000000000000000000000000000000000000600052603260045260246000fd5b7f4e487b7100000000000000000000000000000000000000000000000000000000600052601160045260246000fd5b60006115d582610e56565b91506115e083610e56565b9250828210156115f3576115f261159b565b5b828203905092915050565b600061160982610e56565b915061161483610e56565b9250827fffffffffffffffffffffffffffffffffffffffffffffffffffffffffffffffff038211156116495761164861159b565b5b828201905092915050565b7f4e487b7100000000000000000000000000000000000000000000000000000000600052602260045260246000fd5b6000600282049050600182168061169b57607f821691505b602082108114156116af576116ae611654565b5b50919050565b60006116c082610e56565b91507fffffffffffffffffffffffffffffffffffffffffffffffffffffffffffffffff8214156116f3576116f261159b565b5b60018201905091905056fea2646970667358221220d51c7dc5f13196cb5ff19becbd1ad0cd8ff6d260eae7722320ab6ebb4055738864736f6c634300080a0033",
  "immutableReferences": {},
  "source": "// SPDX-License-Identifier: MIT\npragma solidity >=0.4.22 <0.9.0;\n\ncontract NFT {\n    struct info_nft {\n        uint256 nft_id;\n        string name;\n        string picture;\n        uint16 reward;\n        string type_nft;\n        uint16 price;\n        uint16 cost_wood;\n        uint16 cost_fruit;\n        uint16 energy_consumed;\n        uint16 amount_food;\n        address seller;\n    }\n    mapping(uint256 => address) public ownerNft;\n    mapping(address => uint256) public ownerNFTCount;\n    info_nft[] public nft;\n\n    function _craftNFT(\n        uint256 _nft_id,\n        string memory _name,\n        string memory _picture,\n        uint16 _reward,\n        string memory _type_nft,\n        uint16 _cost_wood,\n        uint16 _cost_fruit,\n        uint16 _energy_consumed,\n        uint16 _amount_food\n    ) public {\n        nft.push(\n            info_nft(\n                _nft_id,\n                _name,\n                _picture,\n                _reward,\n                _type_nft,\n                0,\n                _cost_wood,\n                _cost_fruit,\n                _energy_consumed,\n                _amount_food,\n                address(0)\n            )\n        );\n        uint256 id = nft.length - 1;\n        ownerNft[id] = msg.sender;\n        ownerNFTCount[msg.sender] = ownerNFTCount[msg.sender] + 1;\n    }\n\n    function getNFTByOwner(address _owner)\n        public\n        view\n        returns (uint256[] memory)\n    {\n        uint256[] memory result = new uint256[](ownerNFTCount[_owner]);\n        uint256 counter = 0;\n        for (uint256 i = 0; i < nft.length; i++) {\n            if (ownerNft[i] == _owner) {\n                result[counter] = i;\n                counter++;\n            }\n        }\n        return result;\n    }\n\n    function sellNFT(uint256 _tokenID, uint16 _price) public {\n        info_nft storage myNFT = nft[_tokenID];\n        myNFT.price = _price;\n        myNFT.seller = msg.sender;\n        ownerNFTCount[msg.sender] = ownerNFTCount[msg.sender] - 1;\n        ownerNFTCount[address(this)] = ownerNFTCount[address(this)] + 1;\n        ownerNft[_tokenID] = address(this);\n    }\n\n    function buyNFT(\n        uint256 _tokenID,\n        uint16 _price,\n        address seller\n    ) public payable {\n        require(msg.value != _price, \"Insufficient payment\");\n        payable(seller).transfer(msg.value);\n        info_nft storage myNFT = nft[_tokenID];\n        myNFT.price = _price;\n        myNFT.seller = address(0);\n        ownerNFTCount[address(this)] = ownerNFTCount[address(this)] - 1;\n        ownerNFTCount[msg.sender] = ownerNFTCount[msg.sender] + 1;\n        ownerNft[_tokenID] = msg.sender;\n    }\n}\n",
  "sourcePath": "/Users/komsark/Final-Project/Farm-Souvirniors-API/contracts/NFT.sol",
  "compiler": {
    "name": "solc",
    "version": "0.8.10+commit.fc410830.Emscripten.clang"
  },
  "schemaVersion": "3.4.4",
  "updatedAt": "2022-02-13T09:15:40.428Z",
  "networkType": "ethereum",
  "devdoc": {
    "kind": "dev",
    "methods": {},
    "version": 1
  },
  "userdoc": {
    "kind": "user",
    "methods": {},
    "version": 1
  }
}