{
  "contractName": "NFT",
  "abi": [
    {
      "inputs": [
        {
          "internalType": "uint256",
          "name": "",
          "type": "uint256"
        }
      ],
      "name": "nft",
      "outputs": [
        {
          "internalType": "string",
          "name": "name",
          "type": "string"
        },
        {
          "internalType": "uint16",
          "name": "reward",
          "type": "uint16"
        },
        {
          "internalType": "string",
          "name": "type_nft",
          "type": "string"
        },
        {
          "internalType": "uint16",
          "name": "price",
          "type": "uint16"
        },
        {
          "internalType": "uint16",
          "name": "cost_wood",
          "type": "uint16"
        },
        {
          "internalType": "uint16",
          "name": "cost_fruit",
          "type": "uint16"
        },
        {
          "internalType": "uint16",
          "name": "energyConsumed",
          "type": "uint16"
        }
      ],
      "stateMutability": "view",
      "type": "function",
      "constant": true
    },
    {
      "inputs": [
        {
          "internalType": "address",
          "name": "",
          "type": "address"
        },
        {
          "internalType": "uint256",
          "name": "",
          "type": "uint256"
        }
      ],
      "name": "ownerNft",
      "outputs": [
        {
          "internalType": "uint256",
          "name": "",
          "type": "uint256"
        }
      ],
      "stateMutability": "view",
      "type": "function",
      "constant": true
    },
    {
      "inputs": [
        {
          "internalType": "uint256",
          "name": "_pid",
          "type": "uint256"
        },
        {
          "internalType": "string",
          "name": "_name",
          "type": "string"
        },
        {
          "internalType": "uint16",
          "name": "_reward",
          "type": "uint16"
        },
        {
          "internalType": "string",
          "name": "_type_nft",
          "type": "string"
        },
        {
          "internalType": "uint16",
          "name": "_cost_wood",
          "type": "uint16"
        },
        {
          "internalType": "uint16",
          "name": "_cost_fruit",
          "type": "uint16"
        },
        {
          "internalType": "uint16",
          "name": "_energyConsumed",
          "type": "uint16"
        }
      ],
      "name": "_craftNFT",
      "outputs": [],
      "stateMutability": "nonpayable",
      "type": "function"
    },
    {
      "inputs": [
        {
          "internalType": "address",
          "name": "_owner",
          "type": "address"
        }
      ],
      "name": "getNFTByOwner",
      "outputs": [
        {
          "internalType": "uint256[]",
          "name": "",
          "type": "uint256[]"
        }
      ],
      "stateMutability": "view",
      "type": "function",
      "constant": true
    }
  ],
  "bytecode": "0x608060405234801561001057600080fd5b50610c0b806100206000396000f3fe608060405234801561001057600080fd5b506004361061004c5760003560e01c8063229d69ac146100515780639d0214cb1461006d578063cb0c14c4146100a3578063f1fd4426146100d3575b600080fd5b61006b60048036038101906100669190610784565b610103565b005b6100876004803603810190610082919061085e565b6102b8565b60405161009a9796959493929190610922565b60405180910390f35b6100bd60048036038101906100b891906109fd565b610450565b6040516100ca9190610ae8565b60405180910390f35b6100ed60048036038101906100e89190610b0a565b6104e6565b6040516100fa9190610b59565b60405180910390f35b6040518060e001604052808781526020018661ffff168152602001858152602001600061ffff1681526020018461ffff1681526020018361ffff1681526020018261ffff1681525060016000898152602001908152602001600020600082015181600001908051906020019061017a929190610517565b5060208201518160010160006101000a81548161ffff021916908361ffff16021790555060408201518160020190805190602001906101ba929190610517565b5060608201518160030160006101000a81548161ffff021916908361ffff16021790555060808201518160030160026101000a81548161ffff021916908361ffff16021790555060a08201518160030160046101000a81548161ffff021916908361ffff16021790555060c08201518160030160066101000a81548161ffff021916908361ffff1602179055509050506000803373ffffffffffffffffffffffffffffffffffffffff1673ffffffffffffffffffffffffffffffffffffffff16815260200190815260200160002087908060018154018082558091505060019003906000526020600020016000909190919091505550505050505050565b60016020528060005260406000206000915090508060000180546102db90610ba3565b80601f016020809104026020016040519081016040528092919081815260200182805461030790610ba3565b80156103545780601f1061032957610100808354040283529160200191610354565b820191906000526020600020905b81548152906001019060200180831161033757829003601f168201915b5050505050908060010160009054906101000a900461ffff169080600201805461037d90610ba3565b80601f01602080910402602001604051908101604052809291908181526020018280546103a990610ba3565b80156103f65780601f106103cb576101008083540402835291602001916103f6565b820191906000526020600020905b8154815290600101906020018083116103d957829003601f168201915b5050505050908060030160009054906101000a900461ffff16908060030160029054906101000a900461ffff16908060030160049054906101000a900461ffff16908060030160069054906101000a900461ffff16905087565b60606000808373ffffffffffffffffffffffffffffffffffffffff1673ffffffffffffffffffffffffffffffffffffffff1681526020019081526020016000208054806020026020016040519081016040528092919081815260200182805480156104da57602002820191906000526020600020905b8154815260200190600101908083116104c6575b50505050509050919050565b6000602052816000526040600020818154811061050257600080fd5b90600052602060002001600091509150505481565b82805461052390610ba3565b90600052602060002090601f016020900481019282610545576000855561058c565b82601f1061055e57805160ff191683800117855561058c565b8280016001018555821561058c579182015b8281111561058b578251825591602001919060010190610570565b5b509050610599919061059d565b5090565b5b808211156105b657600081600090555060010161059e565b5090565b6000604051905090565b600080fd5b600080fd5b6000819050919050565b6105e1816105ce565b81146105ec57600080fd5b50565b6000813590506105fe816105d8565b92915050565b600080fd5b600080fd5b6000601f19601f8301169050919050565b7f4e487b7100000000000000000000000000000000000000000000000000000000600052604160045260246000fd5b6106578261060e565b810181811067ffffffffffffffff821117156106765761067561061f565b5b80604052505050565b60006106896105ba565b9050610695828261064e565b919050565b600067ffffffffffffffff8211156106b5576106b461061f565b5b6106be8261060e565b9050602081019050919050565b82818337600083830152505050565b60006106ed6106e88461069a565b61067f565b90508281526020810184848401111561070957610708610609565b5b6107148482856106cb565b509392505050565b600082601f83011261073157610730610604565b5b81356107418482602086016106da565b91505092915050565b600061ffff82169050919050565b6107618161074a565b811461076c57600080fd5b50565b60008135905061077e81610758565b92915050565b600080600080600080600060e0888a0312156107a3576107a26105c4565b5b60006107b18a828b016105ef565b975050602088013567ffffffffffffffff8111156107d2576107d16105c9565b5b6107de8a828b0161071c565b96505060406107ef8a828b0161076f565b955050606088013567ffffffffffffffff8111156108105761080f6105c9565b5b61081c8a828b0161071c565b945050608061082d8a828b0161076f565b93505060a061083e8a828b0161076f565b92505060c061084f8a828b0161076f565b91505092959891949750929550565b600060208284031215610874576108736105c4565b5b6000610882848285016105ef565b91505092915050565b600081519050919050565b600082825260208201905092915050565b60005b838110156108c55780820151818401526020810190506108aa565b838111156108d4576000848401525b50505050565b60006108e58261088b565b6108ef8185610896565b93506108ff8185602086016108a7565b6109088161060e565b840191505092915050565b61091c8161074a565b82525050565b600060e082019050818103600083015261093c818a6108da565b905061094b6020830189610913565b818103604083015261095d81886108da565b905061096c6060830187610913565b6109796080830186610913565b61098660a0830185610913565b61099360c0830184610913565b98975050505050505050565b600073ffffffffffffffffffffffffffffffffffffffff82169050919050565b60006109ca8261099f565b9050919050565b6109da816109bf565b81146109e557600080fd5b50565b6000813590506109f7816109d1565b92915050565b600060208284031215610a1357610a126105c4565b5b6000610a21848285016109e8565b91505092915050565b600081519050919050565b600082825260208201905092915050565b6000819050602082019050919050565b610a5f816105ce565b82525050565b6000610a718383610a56565b60208301905092915050565b6000602082019050919050565b6000610a9582610a2a565b610a9f8185610a35565b9350610aaa83610a46565b8060005b83811015610adb578151610ac28882610a65565b9750610acd83610a7d565b925050600181019050610aae565b5085935050505092915050565b60006020820190508181036000830152610b028184610a8a565b905092915050565b60008060408385031215610b2157610b206105c4565b5b6000610b2f858286016109e8565b9250506020610b40858286016105ef565b9150509250929050565b610b53816105ce565b82525050565b6000602082019050610b6e6000830184610b4a565b92915050565b7f4e487b7100000000000000000000000000000000000000000000000000000000600052602260045260246000fd5b60006002820490506001821680610bbb57607f821691505b60208210811415610bcf57610bce610b74565b5b5091905056fea26469706673582212202dee12c912b73375b6c80214510382cfed4e5fe63feab49f5e1c0080f20adc0464736f6c634300080a0033",
  "immutableReferences": {},
  "source": "// SPDX-License-Identifier: MIT\npragma solidity >=0.4.22 <0.9.0;\n\ncontract NFT {\n    struct info_nft {\n        string name;\n        uint16 reward;\n        string type_nft;\n        uint16 price;\n        uint16 cost_wood;\n        uint16 cost_fruit;\n        uint16 energyConsumed;\n    }\n    mapping(address => uint256[]) public ownerNft;\n    mapping(uint256 => info_nft) public nft;\n    mapping(address => uint256) ownerNFTCount;\n\n    function _craftNFT(\n        uint256 _pid,\n        string memory _name,\n        uint16 _reward,\n        string memory _type_nft,\n        uint16 _cost_wood,\n        uint16 _cost_fruit,\n        uint16 _energyConsumed\n    ) public {\n        nft[_pid] = info_nft({\n            name: _name,\n            reward: _reward,\n            type_nft: _type_nft,\n            price: 0,\n            cost_wood: _cost_wood,\n            cost_fruit: _cost_fruit,\n            energyConsumed: _energyConsumed\n        });\n        ownerNft[msg.sender].push(_pid);\n    }\n\n    function getNFTByOwner(address _owner)\n        public\n        view\n        returns (uint256[] memory)\n    {\n        return ownerNft[_owner];\n    }\n}\n",
  "sourcePath": "/Users/komsark/Final-Project/Farm-Souvirnirs-API/contracts/NFT.sol",
  "compiler": {
    "name": "solc",
    "version": "0.8.10+commit.fc410830.Emscripten.clang"
  },
  "schemaVersion": "3.4.4",
  "updatedAt": "2022-02-02T20:15:08.006Z",
  "networkType": "ethereum",
  "devdoc": {
    "kind": "dev",
    "methods": {},
    "version": 1
  },
  "userdoc": {
    "kind": "user",
    "methods": {},
    "version": 1
  }
}