{
  "contractName": "NFT",
  "abi": [
    {
      "inputs": [
        {
          "internalType": "uint256",
          "name": "",
          "type": "uint256"
        }
      ],
      "name": "nft",
      "outputs": [
        {
          "internalType": "uint256",
          "name": "nft_id",
          "type": "uint256"
        },
        {
          "internalType": "string",
          "name": "name",
          "type": "string"
        },
        {
          "internalType": "string",
          "name": "picture",
          "type": "string"
        },
        {
          "internalType": "uint16",
          "name": "reward",
          "type": "uint16"
        },
        {
          "internalType": "string",
          "name": "type_nft",
          "type": "string"
        },
        {
          "internalType": "string",
          "name": "price",
          "type": "string"
        },
        {
          "internalType": "uint16",
          "name": "cost_wood",
          "type": "uint16"
        },
        {
          "internalType": "uint16",
          "name": "cost_fruit",
          "type": "uint16"
        },
        {
          "internalType": "uint16",
          "name": "energy_consumed",
          "type": "uint16"
        },
        {
          "internalType": "uint16",
          "name": "amount_food",
          "type": "uint16"
        },
        {
          "internalType": "address",
          "name": "seller",
          "type": "address"
        }
      ],
      "stateMutability": "view",
      "type": "function",
      "constant": true
    },
    {
      "inputs": [
        {
          "internalType": "address",
          "name": "",
          "type": "address"
        }
      ],
      "name": "ownerNFTCount",
      "outputs": [
        {
          "internalType": "uint256",
          "name": "",
          "type": "uint256"
        }
      ],
      "stateMutability": "view",
      "type": "function",
      "constant": true
    },
    {
      "inputs": [
        {
          "internalType": "uint256",
          "name": "",
          "type": "uint256"
        }
      ],
      "name": "ownerNft",
      "outputs": [
        {
          "internalType": "address",
          "name": "",
          "type": "address"
        }
      ],
      "stateMutability": "view",
      "type": "function",
      "constant": true
    },
    {
      "inputs": [
        {
          "internalType": "uint256",
          "name": "_nft_id",
          "type": "uint256"
        },
        {
          "internalType": "string",
          "name": "_name",
          "type": "string"
        },
        {
          "internalType": "string",
          "name": "_picture",
          "type": "string"
        },
        {
          "internalType": "uint16",
          "name": "_reward",
          "type": "uint16"
        },
        {
          "internalType": "string",
          "name": "_type_nft",
          "type": "string"
        },
        {
          "internalType": "uint16",
          "name": "_cost_wood",
          "type": "uint16"
        },
        {
          "internalType": "uint16",
          "name": "_cost_fruit",
          "type": "uint16"
        },
        {
          "internalType": "uint16",
          "name": "_energy_consumed",
          "type": "uint16"
        },
        {
          "internalType": "uint16",
          "name": "_amount_food",
          "type": "uint16"
        }
      ],
      "name": "_craftNFT",
      "outputs": [],
      "stateMutability": "nonpayable",
      "type": "function"
    },
    {
      "inputs": [
        {
          "internalType": "address",
          "name": "_owner",
          "type": "address"
        }
      ],
      "name": "getNFTByOwner",
      "outputs": [
        {
          "internalType": "uint256[]",
          "name": "",
          "type": "uint256[]"
        }
      ],
      "stateMutability": "view",
      "type": "function",
      "constant": true
    },
    {
      "inputs": [
        {
          "internalType": "uint256",
          "name": "_indexNFT",
          "type": "uint256"
        },
        {
          "internalType": "string",
          "name": "_price",
          "type": "string"
        }
      ],
      "name": "sellNFT",
      "outputs": [],
      "stateMutability": "nonpayable",
      "type": "function"
    },
    {
      "inputs": [
        {
          "internalType": "uint256",
          "name": "_indexNFT",
          "type": "uint256"
        },
        {
          "internalType": "string",
          "name": "_price",
          "type": "string"
        },
        {
          "internalType": "address",
          "name": "seller",
          "type": "address"
        }
      ],
      "name": "buyNFT",
      "outputs": [],
      "stateMutability": "payable",
      "type": "function",
      "payable": true
    },
    {
      "inputs": [
        {
          "internalType": "uint256",
          "name": "_indexNFT",
          "type": "uint256"
        }
      ],
      "name": "cancleNFT",
      "outputs": [],
      "stateMutability": "nonpayable",
      "type": "function"
    }
  ],
  "bytecode": "0x608060405234801561001057600080fd5b506119b5806100206000396000f3fe60806040526004361061007b5760003560e01c80639d0214cb1161004e5780639d0214cb1461012b578063cb0c14c414610172578063fb88df18146101af578063fda547ef146101ec5761007b565b806321381d3714610080578063349d595f146100bd57806335cc06e3146100e657806362cb9fa414610102575b600080fd5b34801561008c57600080fd5b506100a760048036038101906100a2919061113a565b610215565b6040516100b491906111a8565b60405180910390f35b3480156100c957600080fd5b506100e460048036038101906100df919061113a565b610248565b005b61010060048036038101906100fb9190611335565b610471565b005b34801561010e57600080fd5b50610129600480360381019061012491906113a4565b6106ae565b005b34801561013757600080fd5b50610152600480360381019061014d919061113a565b6108a2565b6040516101699b9a999897969594939291906114b4565b60405180910390f35b34801561017e57600080fd5b506101996004803603810190610194919061157b565b610b92565b6040516101a69190611666565b60405180910390f35b3480156101bb57600080fd5b506101d660048036038101906101d1919061157b565b610ce4565b6040516101e39190611688565b60405180910390f35b3480156101f857600080fd5b50610213600480360381019061020e91906116cf565b610cfc565b005b60006020528060005260406000206000915054906101000a900473ffffffffffffffffffffffffffffffffffffffff1681565b60006002828154811061025e5761025d6117ed565b5b906000526020600020906007020190506040518060400160405280600181526020017f30000000000000000000000000000000000000000000000000000000000000008152508160050190805190602001906102bb92919061104d565b5060008160060160086101000a81548173ffffffffffffffffffffffffffffffffffffffff021916908373ffffffffffffffffffffffffffffffffffffffff16021790555060018060003373ffffffffffffffffffffffffffffffffffffffff1673ffffffffffffffffffffffffffffffffffffffff1681526020019081526020016000205461034b919061184b565b600160003373ffffffffffffffffffffffffffffffffffffffff1673ffffffffffffffffffffffffffffffffffffffff1681526020019081526020016000208190555060018060003073ffffffffffffffffffffffffffffffffffffffff1673ffffffffffffffffffffffffffffffffffffffff168152602001908152602001600020546103d991906118a1565b600160003073ffffffffffffffffffffffffffffffffffffffff1673ffffffffffffffffffffffffffffffffffffffff168152602001908152602001600020819055503360008084815260200190815260200160002060006101000a81548173ffffffffffffffffffffffffffffffffffffffff021916908373ffffffffffffffffffffffffffffffffffffffff1602179055505050565b8073ffffffffffffffffffffffffffffffffffffffff166108fc349081150290604051600060405180830381858888f193505050501580156104b7573d6000803e3d6000fd5b506000600284815481106104ce576104cd6117ed565b5b90600052602060002090600702019050828160050190805190602001906104f692919061104d565b5060008160060160086101000a81548173ffffffffffffffffffffffffffffffffffffffff021916908373ffffffffffffffffffffffffffffffffffffffff16021790555060018060003073ffffffffffffffffffffffffffffffffffffffff1673ffffffffffffffffffffffffffffffffffffffff1681526020019081526020016000205461058691906118a1565b600160003073ffffffffffffffffffffffffffffffffffffffff1673ffffffffffffffffffffffffffffffffffffffff1681526020019081526020016000208190555060018060003373ffffffffffffffffffffffffffffffffffffffff1673ffffffffffffffffffffffffffffffffffffffff16815260200190815260200160002054610614919061184b565b600160003373ffffffffffffffffffffffffffffffffffffffff1673ffffffffffffffffffffffffffffffffffffffff168152602001908152602001600020819055503360008086815260200190815260200160002060006101000a81548173ffffffffffffffffffffffffffffffffffffffff021916908373ffffffffffffffffffffffffffffffffffffffff16021790555050505050565b6000600283815481106106c4576106c36117ed565b5b90600052602060002090600702019050818160050190805190602001906106ec92919061104d565b50338160060160086101000a81548173ffffffffffffffffffffffffffffffffffffffff021916908373ffffffffffffffffffffffffffffffffffffffff16021790555060018060003373ffffffffffffffffffffffffffffffffffffffff1673ffffffffffffffffffffffffffffffffffffffff1681526020019081526020016000205461077b91906118a1565b600160003373ffffffffffffffffffffffffffffffffffffffff1673ffffffffffffffffffffffffffffffffffffffff1681526020019081526020016000208190555060018060003073ffffffffffffffffffffffffffffffffffffffff1673ffffffffffffffffffffffffffffffffffffffff16815260200190815260200160002054610809919061184b565b600160003073ffffffffffffffffffffffffffffffffffffffff1673ffffffffffffffffffffffffffffffffffffffff168152602001908152602001600020819055503060008085815260200190815260200160002060006101000a81548173ffffffffffffffffffffffffffffffffffffffff021916908373ffffffffffffffffffffffffffffffffffffffff160217905550505050565b600281815481106108b257600080fd5b90600052602060002090600702016000915090508060000154908060010180546108db90611904565b80601f016020809104026020016040519081016040528092919081815260200182805461090790611904565b80156109545780601f1061092957610100808354040283529160200191610954565b820191906000526020600020905b81548152906001019060200180831161093757829003601f168201915b50505050509080600201805461096990611904565b80601f016020809104026020016040519081016040528092919081815260200182805461099590611904565b80156109e25780601f106109b7576101008083540402835291602001916109e2565b820191906000526020600020905b8154815290600101906020018083116109c557829003601f168201915b5050505050908060030160009054906101000a900461ffff1690806004018054610a0b90611904565b80601f0160208091040260200160405190810160405280929190818152602001828054610a3790611904565b8015610a845780601f10610a5957610100808354040283529160200191610a84565b820191906000526020600020905b815481529060010190602001808311610a6757829003601f168201915b505050505090806005018054610a9990611904565b80601f0160208091040260200160405190810160405280929190818152602001828054610ac590611904565b8015610b125780601f10610ae757610100808354040283529160200191610b12565b820191906000526020600020905b815481529060010190602001808311610af557829003601f168201915b5050505050908060060160009054906101000a900461ffff16908060060160029054906101000a900461ffff16908060060160049054906101000a900461ffff16908060060160069054906101000a900461ffff16908060060160089054906101000a900473ffffffffffffffffffffffffffffffffffffffff1690508b565b60606000600160008473ffffffffffffffffffffffffffffffffffffffff1673ffffffffffffffffffffffffffffffffffffffff1681526020019081526020016000205467ffffffffffffffff811115610bef57610bee6111de565b5b604051908082528060200260200182016040528015610c1d5781602001602082028036833780820191505090505b5090506000805b600280549050811015610cd9578473ffffffffffffffffffffffffffffffffffffffff1660008083815260200190815260200160002060009054906101000a900473ffffffffffffffffffffffffffffffffffffffff1673ffffffffffffffffffffffffffffffffffffffff161415610cc65780838381518110610cab57610caa6117ed565b5b6020026020010181815250508180610cc290611936565b9250505b8080610cd190611936565b915050610c24565b508192505050919050565b60016020528060005260406000206000915090505481565b60026040518061016001604052808b81526020018a81526020018981526020018861ffff1681526020018781526020016040518060400160405280600181526020017f300000000000000000000000000000000000000000000000000000000000000081525081526020018661ffff1681526020018561ffff1681526020018461ffff1681526020018361ffff168152602001600073ffffffffffffffffffffffffffffffffffffffff168152509080600181540180825580915050600190039060005260206000209060070201600090919091909150600082015181600001556020820151816001019080519060200190610df992919061104d565b506040820151816002019080519060200190610e1692919061104d565b5060608201518160030160006101000a81548161ffff021916908361ffff1602179055506080820151816004019080519060200190610e5692919061104d565b5060a0820151816005019080519060200190610e7392919061104d565b5060c08201518160060160006101000a81548161ffff021916908361ffff16021790555060e08201518160060160026101000a81548161ffff021916908361ffff1602179055506101008201518160060160046101000a81548161ffff021916908361ffff1602179055506101208201518160060160066101000a81548161ffff021916908361ffff1602179055506101408201518160060160086101000a81548173ffffffffffffffffffffffffffffffffffffffff021916908373ffffffffffffffffffffffffffffffffffffffff160217905550505060006001600280549050610f6091906118a1565b90503360008083815260200190815260200160002060006101000a81548173ffffffffffffffffffffffffffffffffffffffff021916908373ffffffffffffffffffffffffffffffffffffffff16021790555060018060003373ffffffffffffffffffffffffffffffffffffffff1673ffffffffffffffffffffffffffffffffffffffff16815260200190815260200160002054610ffe919061184b565b600160003373ffffffffffffffffffffffffffffffffffffffff1673ffffffffffffffffffffffffffffffffffffffff1681526020019081526020016000208190555050505050505050505050565b82805461105990611904565b90600052602060002090601f01602090048101928261107b57600085556110c2565b82601f1061109457805160ff19168380011785556110c2565b828001600101855582156110c2579182015b828111156110c15782518255916020019190600101906110a6565b5b5090506110cf91906110d3565b5090565b5b808211156110ec5760008160009055506001016110d4565b5090565b6000604051905090565b600080fd5b600080fd5b6000819050919050565b61111781611104565b811461112257600080fd5b50565b6000813590506111348161110e565b92915050565b6000602082840312156111505761114f6110fa565b5b600061115e84828501611125565b91505092915050565b600073ffffffffffffffffffffffffffffffffffffffff82169050919050565b600061119282611167565b9050919050565b6111a281611187565b82525050565b60006020820190506111bd6000830184611199565b92915050565b600080fd5b600080fd5b6000601f19601f8301169050919050565b7f4e487b7100000000000000000000000000000000000000000000000000000000600052604160045260246000fd5b611216826111cd565b810181811067ffffffffffffffff82111715611235576112346111de565b5b80604052505050565b60006112486110f0565b9050611254828261120d565b919050565b600067ffffffffffffffff821115611274576112736111de565b5b61127d826111cd565b9050602081019050919050565b82818337600083830152505050565b60006112ac6112a784611259565b61123e565b9050828152602081018484840111156112c8576112c76111c8565b5b6112d384828561128a565b509392505050565b600082601f8301126112f0576112ef6111c3565b5b8135611300848260208601611299565b91505092915050565b61131281611187565b811461131d57600080fd5b50565b60008135905061132f81611309565b92915050565b60008060006060848603121561134e5761134d6110fa565b5b600061135c86828701611125565b935050602084013567ffffffffffffffff81111561137d5761137c6110ff565b5b611389868287016112db565b925050604061139a86828701611320565b9150509250925092565b600080604083850312156113bb576113ba6110fa565b5b60006113c985828601611125565b925050602083013567ffffffffffffffff8111156113ea576113e96110ff565b5b6113f6858286016112db565b9150509250929050565b61140981611104565b82525050565b600081519050919050565b600082825260208201905092915050565b60005b8381101561144957808201518184015260208101905061142e565b83811115611458576000848401525b50505050565b60006114698261140f565b611473818561141a565b935061148381856020860161142b565b61148c816111cd565b840191505092915050565b600061ffff82169050919050565b6114ae81611497565b82525050565b6000610160820190506114ca600083018e611400565b81810360208301526114dc818d61145e565b905081810360408301526114f0818c61145e565b90506114ff606083018b6114a5565b8181036080830152611511818a61145e565b905081810360a0830152611525818961145e565b905061153460c08301886114a5565b61154160e08301876114a5565b61154f6101008301866114a5565b61155d6101208301856114a5565b61156b610140830184611199565b9c9b505050505050505050505050565b600060208284031215611591576115906110fa565b5b600061159f84828501611320565b91505092915050565b600081519050919050565b600082825260208201905092915050565b6000819050602082019050919050565b6115dd81611104565b82525050565b60006115ef83836115d4565b60208301905092915050565b6000602082019050919050565b6000611613826115a8565b61161d81856115b3565b9350611628836115c4565b8060005b8381101561165957815161164088826115e3565b975061164b836115fb565b92505060018101905061162c565b5085935050505092915050565b600060208201905081810360008301526116808184611608565b905092915050565b600060208201905061169d6000830184611400565b92915050565b6116ac81611497565b81146116b757600080fd5b50565b6000813590506116c9816116a3565b92915050565b60008060008060008060008060006101208a8c0312156116f2576116f16110fa565b5b60006117008c828d01611125565b99505060208a013567ffffffffffffffff811115611721576117206110ff565b5b61172d8c828d016112db565b98505060408a013567ffffffffffffffff81111561174e5761174d6110ff565b5b61175a8c828d016112db565b975050606061176b8c828d016116ba565b96505060808a013567ffffffffffffffff81111561178c5761178b6110ff565b5b6117988c828d016112db565b95505060a06117a98c828d016116ba565b94505060c06117ba8c828d016116ba565b93505060e06117cb8c828d016116ba565b9250506101006117dd8c828d016116ba565b9150509295985092959850929598565b7f4e487b7100000000000000000000000000000000000000000000000000000000600052603260045260246000fd5b7f4e487b7100000000000000000000000000000000000000000000000000000000600052601160045260246000fd5b600061185682611104565b915061186183611104565b9250827fffffffffffffffffffffffffffffffffffffffffffffffffffffffffffffffff038211156118965761189561181c565b5b828201905092915050565b60006118ac82611104565b91506118b783611104565b9250828210156118ca576118c961181c565b5b828203905092915050565b7f4e487b7100000000000000000000000000000000000000000000000000000000600052602260045260246000fd5b6000600282049050600182168061191c57607f821691505b602082108114156119305761192f6118d5565b5b50919050565b600061194182611104565b91507fffffffffffffffffffffffffffffffffffffffffffffffffffffffffffffffff8214156119745761197361181c565b5b60018201905091905056fea2646970667358221220e2f672ca956126bfe532778516d2f77eb90a71c36b1a4701918f1985cf6138e264736f6c634300080a0033",
  "immutableReferences": {},
  "source": "// SPDX-License-Identifier: MIT\npragma solidity >=0.4.22 <0.9.0;\n\ncontract NFT {\n    struct info_nft {\n        uint256 nft_id;\n        string name;\n        string picture;\n        uint16 reward;\n        string type_nft;\n        string price;\n        uint16 cost_wood;\n        uint16 cost_fruit;\n        uint16 energy_consumed;\n        uint16 amount_food;\n        address seller;\n    }\n    mapping(uint256 => address) public ownerNft;\n    mapping(address => uint256) public ownerNFTCount;\n    info_nft[] public nft;\n\n    function _craftNFT(\n        uint256 _nft_id,\n        string memory _name,\n        string memory _picture,\n        uint16 _reward,\n        string memory _type_nft,\n        uint16 _cost_wood,\n        uint16 _cost_fruit,\n        uint16 _energy_consumed,\n        uint16 _amount_food\n    ) public {\n        nft.push(\n            info_nft(\n                _nft_id,\n                _name,\n                _picture,\n                _reward,\n                _type_nft,\n                '0',\n                _cost_wood,\n                _cost_fruit,\n                _energy_consumed,\n                _amount_food,\n                address(0)\n            )\n        );\n        uint256 id = nft.length - 1;\n        ownerNft[id] = msg.sender;\n        ownerNFTCount[msg.sender] = ownerNFTCount[msg.sender] + 1;\n    }\n\n    function getNFTByOwner(address _owner)\n        public\n        view\n        returns (uint256[] memory)\n    {\n        uint256[] memory result = new uint256[](ownerNFTCount[_owner]);\n        uint256 counter = 0;\n        for (uint256 i = 0; i < nft.length; i++) {\n            if (ownerNft[i] == _owner) {\n                result[counter] = i;\n                counter++;\n            }\n        }\n        return result;\n    }\n\n    function sellNFT(uint256 _indexNFT, string memory _price) public {\n        info_nft storage myNFT = nft[_indexNFT];\n        myNFT.price = _price;\n        myNFT.seller = msg.sender;\n        ownerNFTCount[msg.sender] = ownerNFTCount[msg.sender] - 1;\n        ownerNFTCount[address(this)] = ownerNFTCount[address(this)] + 1;\n        ownerNft[_indexNFT] = address(this);\n    }\n\n    function buyNFT(\n        uint256 _indexNFT,\n        string memory _price,\n        address seller\n    ) public payable {\n        payable(seller).transfer(msg.value);\n        info_nft storage myNFT = nft[_indexNFT];\n        myNFT.price = _price;\n        myNFT.seller = address(0);\n        ownerNFTCount[address(this)] = ownerNFTCount[address(this)] - 1;\n        ownerNFTCount[msg.sender] = ownerNFTCount[msg.sender] + 1;\n        ownerNft[_indexNFT] = msg.sender;\n    }\n\n    function cancleNFT(uint256 _indexNFT) public {\n        info_nft storage myNFT = nft[_indexNFT];\n        myNFT.price = '0';\n        myNFT.seller = address(0);\n        ownerNFTCount[msg.sender] = ownerNFTCount[msg.sender] + 1;\n        ownerNFTCount[address(this)] = ownerNFTCount[address(this)] - 1;\n        ownerNft[_indexNFT] = msg.sender;\n    }\n}\n",
  "sourcePath": "/Users/komsark/Final-Project/Farm-Souvirniors-API/contracts/NFT.sol",
  "compiler": {
    "name": "solc",
    "version": "0.8.10+commit.fc410830.Emscripten.clang"
  },
  "schemaVersion": "3.4.4",
  "updatedAt": "2022-02-15T13:52:35.977Z",
  "networkType": "ethereum",
  "devdoc": {
    "kind": "dev",
    "methods": {},
    "version": 1
  },
  "userdoc": {
    "kind": "user",
    "methods": {},
    "version": 1
  }
}